{
  "contractName": "NFTResolver",
  "abi": [
    {
      "inputs": [
        {
          "internalType": "address",
          "name": "contract_add",
          "type": "address"
        }
      ],
      "name": "checker",
      "outputs": [
        {
          "internalType": "bool",
          "name": "canExec",
          "type": "bool"
        },
        {
          "internalType": "bytes",
          "name": "execPayload",
          "type": "bytes"
        }
      ],
      "stateMutability": "view",
      "type": "function",
      "constant": true
    }
  ],
  "bytecode": "0x608060405234801561001057600080fd5b50610812806100206000396000f3fe608060405234801561001057600080fd5b506004361061002b5760003560e01c8063016c683c14610030575b600080fd5b61004a600480360381019061004591906103de565b610061565b6040516100589291906104bf565b60405180910390f35b6000606060008373ffffffffffffffffffffffffffffffffffffffff16637ee454cb6040518163ffffffff1660e01b8152600401600060405180830381865afa1580156100b2573d6000803e3d6000fd5b505050506040513d6000823e3d601f19601f820116820180604052508101906100db919061066d565b905060005b81518110156103645760008573ffffffffffffffffffffffffffffffffffffffff166369ac439b84848151811061011a576101196106b6565b5b60200260200101516040518263ffffffff1660e01b815260040161013e91906106f4565b600060405180830381865afa15801561015b573d6000803e3d6000fd5b505050506040513d6000823e3d601f19601f82011682018060405250810190610184919061066d565b905060005b815181101561034f5760008773ffffffffffffffffffffffffffffffffffffffff16637fc5a60f8686815181106101c3576101c26106b6565b5b60200260200101518585815181106101de576101dd6106b6565b5b60200260200101516040518363ffffffff1660e01b815260040161020392919061070f565b602060405180830381865afa158015610220573d6000803e3d6000fd5b505050506040513d601f19601f820116820180604052508101906102449190610738565b90504281116102ed576342966c6860e01b838381518110610268576102676106b6565b5b602002602001015160405160240161028091906106f4565b604051602081830303815290604052907bffffffffffffffffffffffffffffffffffffffffffffffffffffffff19166020820180517bffffffffffffffffffffffffffffffffffffffffffffffffffffffff83818316178352505050509550600196505050505050610367565b4281111561033b5760006040518060400160405280601281526020017f53657373696f6e206973206f6e676f696e670000000000000000000000000000815250965096505050505050610367565b50808061034790610794565b915050610189565b5050808061035c90610794565b9150506100e0565b50505b915091565b6000604051905090565b600080fd5b600080fd5b600073ffffffffffffffffffffffffffffffffffffffff82169050919050565b60006103ab82610380565b9050919050565b6103bb816103a0565b81146103c657600080fd5b50565b6000813590506103d8816103b2565b92915050565b6000602082840312156103f4576103f3610376565b5b6000610402848285016103c9565b91505092915050565b60008115159050919050565b6104208161040b565b82525050565b600081519050919050565b600082825260208201905092915050565b60005b83811015610460578082015181840152602081019050610445565b8381111561046f576000848401525b50505050565b6000601f19601f8301169050919050565b600061049182610426565b61049b8185610431565b93506104ab818560208601610442565b6104b481610475565b840191505092915050565b60006040820190506104d46000830185610417565b81810360208301526104e68184610486565b90509392505050565b600080fd5b7f4e487b7100000000000000000000000000000000000000000000000000000000600052604160045260246000fd5b61052c82610475565b810181811067ffffffffffffffff8211171561054b5761054a6104f4565b5b80604052505050565b600061055e61036c565b905061056a8282610523565b919050565b600067ffffffffffffffff82111561058a576105896104f4565b5b602082029050602081019050919050565b600080fd5b6000819050919050565b6105b3816105a0565b81146105be57600080fd5b50565b6000815190506105d0816105aa565b92915050565b60006105e96105e48461056f565b610554565b9050808382526020820190506020840283018581111561060c5761060b61059b565b5b835b81811015610635578061062188826105c1565b84526020840193505060208101905061060e565b5050509392505050565b600082601f830112610654576106536104ef565b5b81516106648482602086016105d6565b91505092915050565b60006020828403121561068357610682610376565b5b600082015167ffffffffffffffff8111156106a1576106a061037b565b5b6106ad8482850161063f565b91505092915050565b7f4e487b7100000000000000000000000000000000000000000000000000000000600052603260045260246000fd5b6106ee816105a0565b82525050565b600060208201905061070960008301846106e5565b92915050565b600060408201905061072460008301856106e5565b61073160208301846106e5565b9392505050565b60006020828403121561074e5761074d610376565b5b600061075c848285016105c1565b91505092915050565b7f4e487b7100000000000000000000000000000000000000000000000000000000600052601160045260246000fd5b600061079f826105a0565b91507fffffffffffffffffffffffffffffffffffffffffffffffffffffffffffffffff82036107d1576107d0610765565b5b60018201905091905056fea2646970667358221220db95db2ea38390d662c71ad97d09512713fba234b1be0084558d545f19c27cf764736f6c634300080f0033",
  "immutableReferences": {},
  "source": " //SPDX-License-Identifier: GPL-3.0\r\npragma solidity  ^ 0.8.0 ;\r\ninterface INFTWarranty {\r\n    \r\n     \r\n    function getSellerNFTs(uint256 sellerId) external view returns(uint256[]memory);    \r\n    function getSellers() external  view returns (uint256 [] memory );\r\n    function getExpiry (uint256 sellerId,uint256 tokenId)external view returns (uint256 expiry);\r\n    function getCreation (uint256 sellerId,uint256 tokenId)external view returns (uint256 creation);\r\n    function burn(uint256 tokenId) external ;\r\n}\r\ncontract NFTResolver  {\r\n\r\n\r\n    function checker(address contract_add)\r\n        external\r\n        view\r\n        returns (bool canExec, bytes memory execPayload)\r\n       // returns(uint256 []  memory arr)\r\n    {\r\n        \r\n       uint256[] memory ans =  INFTWarranty(contract_add ).getSellers();\r\n       for(uint256 i=0;i<ans.length;i++){\r\n           uint256[] memory nfts = INFTWarranty(contract_add ).getSellerNFTs(ans[i]);\r\n           for(uint256 j=0 ;j<nfts.length;j++){\r\n               uint256 expiry =  INFTWarranty(contract_add).getExpiry(ans[i],nfts[j]);\r\n                //uint256 creationTime =  INFTWarranty(contract_add).getCreation(ans[i],nfts[i]);\r\n            if( expiry <= block.timestamp ){\r\n                execPayload = abi.encodeWithSelector(\r\n                INFTWarranty.burn.selector,\r\n                uint256(nfts[j])\r\n            );\r\n            return (true, execPayload);\r\n           }\r\n         if( expiry > block.timestamp ){\r\n               return(false,bytes(\"Session is ongoing\"));\r\n           }\r\n\r\n           }\r\n\r\n\r\n       }\r\n  \r\n}\r\n\r\n\r\n}",
  "sourcePath": "D:\\OpenSource\\BlockChain\\Projects\\nft-warranty-market\\contracts\\NFTResolver.sol",
  "compiler": {
    "name": "solc",
    "version": "0.8.15+commit.e14f2714.Emscripten.clang"
  },
  "schemaVersion": "3.4.8",
  "updatedAt": "2022-07-29T17:03:36.214Z",
  "networkType": "ethereum",
  "devdoc": {
    "kind": "dev",
    "methods": {},
    "version": 1
  },
  "userdoc": {
    "kind": "user",
    "methods": {},
    "version": 1
  }
}