{
  "contractName": "NFTWarranty",
  "abi": [
    {
      "inputs": [],
      "stateMutability": "nonpayable",
      "type": "constructor"
    },
    {
      "anonymous": false,
      "inputs": [
        {
          "indexed": true,
          "internalType": "address",
          "name": "owner",
          "type": "address"
        },
        {
          "indexed": true,
          "internalType": "address",
          "name": "approved",
          "type": "address"
        },
        {
          "indexed": true,
          "internalType": "uint256",
          "name": "tokenId",
          "type": "uint256"
        }
      ],
      "name": "Approval",
      "type": "event"
    },
    {
      "anonymous": false,
      "inputs": [
        {
          "indexed": true,
          "internalType": "address",
          "name": "owner",
          "type": "address"
        },
        {
          "indexed": true,
          "internalType": "address",
          "name": "operator",
          "type": "address"
        },
        {
          "indexed": false,
          "internalType": "bool",
          "name": "approved",
          "type": "bool"
        }
      ],
      "name": "ApprovalForAll",
      "type": "event"
    },
    {
      "anonymous": false,
      "inputs": [
        {
          "indexed": true,
          "internalType": "address",
          "name": "from",
          "type": "address"
        },
        {
          "indexed": true,
          "internalType": "address",
          "name": "to",
          "type": "address"
        },
        {
          "indexed": true,
          "internalType": "uint256",
          "name": "tokenId",
          "type": "uint256"
        }
      ],
      "name": "Transfer",
      "type": "event"
    },
    {
      "inputs": [
        {
          "internalType": "address",
          "name": "",
          "type": "address"
        }
      ],
      "name": "addressToSellerId",
      "outputs": [
        {
          "internalType": "uint256",
          "name": "",
          "type": "uint256"
        }
      ],
      "stateMutability": "view",
      "type": "function",
      "constant": true
    },
    {
      "inputs": [
        {
          "internalType": "uint256",
          "name": "",
          "type": "uint256"
        }
      ],
      "name": "allSellers",
      "outputs": [
        {
          "internalType": "uint256",
          "name": "id",
          "type": "uint256"
        },
        {
          "internalType": "uint256",
          "name": "itemCounter",
          "type": "uint256"
        },
        {
          "internalType": "address",
          "name": "owner",
          "type": "address"
        }
      ],
      "stateMutability": "view",
      "type": "function",
      "constant": true
    },
    {
      "inputs": [
        {
          "internalType": "address",
          "name": "to",
          "type": "address"
        },
        {
          "internalType": "uint256",
          "name": "tokenId",
          "type": "uint256"
        }
      ],
      "name": "approve",
      "outputs": [],
      "stateMutability": "nonpayable",
      "type": "function"
    },
    {
      "inputs": [
        {
          "internalType": "address",
          "name": "owner",
          "type": "address"
        }
      ],
      "name": "balanceOf",
      "outputs": [
        {
          "internalType": "uint256",
          "name": "",
          "type": "uint256"
        }
      ],
      "stateMutability": "view",
      "type": "function",
      "constant": true
    },
    {
      "inputs": [
        {
          "internalType": "address",
          "name": "",
          "type": "address"
        },
        {
          "internalType": "uint256",
          "name": "",
          "type": "uint256"
        }
      ],
      "name": "buyersCollection",
      "outputs": [
        {
          "internalType": "uint256",
          "name": "",
          "type": "uint256"
        }
      ],
      "stateMutability": "view",
      "type": "function",
      "constant": true
    },
    {
      "inputs": [
        {
          "internalType": "uint256",
          "name": "tokenId",
          "type": "uint256"
        }
      ],
      "name": "getApproved",
      "outputs": [
        {
          "internalType": "address",
          "name": "",
          "type": "address"
        }
      ],
      "stateMutability": "view",
      "type": "function",
      "constant": true
    },
    {
      "inputs": [
        {
          "internalType": "address",
          "name": "owner",
          "type": "address"
        },
        {
          "internalType": "address",
          "name": "operator",
          "type": "address"
        }
      ],
      "name": "isApprovedForAll",
      "outputs": [
        {
          "internalType": "bool",
          "name": "",
          "type": "bool"
        }
      ],
      "stateMutability": "view",
      "type": "function",
      "constant": true
    },
    {
      "inputs": [],
      "name": "name",
      "outputs": [
        {
          "internalType": "string",
          "name": "",
          "type": "string"
        }
      ],
      "stateMutability": "view",
      "type": "function",
      "constant": true
    },
    {
      "inputs": [
        {
          "internalType": "uint256",
          "name": "tokenId",
          "type": "uint256"
        }
      ],
      "name": "ownerOf",
      "outputs": [
        {
          "internalType": "address",
          "name": "",
          "type": "address"
        }
      ],
      "stateMutability": "view",
      "type": "function",
      "constant": true
    },
    {
      "inputs": [
        {
          "internalType": "address",
          "name": "from",
          "type": "address"
        },
        {
          "internalType": "address",
          "name": "to",
          "type": "address"
        },
        {
          "internalType": "uint256",
          "name": "tokenId",
          "type": "uint256"
        }
      ],
      "name": "safeTransferFrom",
      "outputs": [],
      "stateMutability": "nonpayable",
      "type": "function"
    },
    {
      "inputs": [
        {
          "internalType": "address",
          "name": "from",
          "type": "address"
        },
        {
          "internalType": "address",
          "name": "to",
          "type": "address"
        },
        {
          "internalType": "uint256",
          "name": "tokenId",
          "type": "uint256"
        },
        {
          "internalType": "bytes",
          "name": "data",
          "type": "bytes"
        }
      ],
      "name": "safeTransferFrom",
      "outputs": [],
      "stateMutability": "nonpayable",
      "type": "function"
    },
    {
      "inputs": [
        {
          "internalType": "uint256",
          "name": "",
          "type": "uint256"
        },
        {
          "internalType": "uint256",
          "name": "",
          "type": "uint256"
        }
      ],
      "name": "sellerWarrantyDetails",
      "outputs": [
        {
          "internalType": "uint256",
          "name": "tokenId",
          "type": "uint256"
        },
        {
          "internalType": "bytes32",
          "name": "verifyHash",
          "type": "bytes32"
        },
        {
          "internalType": "uint256",
          "name": "creationTime",
          "type": "uint256"
        },
        {
          "internalType": "string",
          "name": "productId",
          "type": "string"
        },
        {
          "internalType": "uint256",
          "name": "expiry",
          "type": "uint256"
        },
        {
          "internalType": "enum NFTWarranty.NFTStatus",
          "name": "status",
          "type": "uint8"
        }
      ],
      "stateMutability": "view",
      "type": "function",
      "constant": true
    },
    {
      "inputs": [
        {
          "internalType": "address",
          "name": "operator",
          "type": "address"
        },
        {
          "internalType": "bool",
          "name": "approved",
          "type": "bool"
        }
      ],
      "name": "setApprovalForAll",
      "outputs": [],
      "stateMutability": "nonpayable",
      "type": "function"
    },
    {
      "inputs": [
        {
          "internalType": "bytes4",
          "name": "interfaceId",
          "type": "bytes4"
        }
      ],
      "name": "supportsInterface",
      "outputs": [
        {
          "internalType": "bool",
          "name": "",
          "type": "bool"
        }
      ],
      "stateMutability": "view",
      "type": "function",
      "constant": true
    },
    {
      "inputs": [],
      "name": "symbol",
      "outputs": [
        {
          "internalType": "string",
          "name": "",
          "type": "string"
        }
      ],
      "stateMutability": "view",
      "type": "function",
      "constant": true
    },
    {
      "inputs": [
        {
          "internalType": "uint256",
          "name": "tokenId",
          "type": "uint256"
        }
      ],
      "name": "tokenURI",
      "outputs": [
        {
          "internalType": "string",
          "name": "",
          "type": "string"
        }
      ],
      "stateMutability": "view",
      "type": "function",
      "constant": true
    },
    {
      "inputs": [
        {
          "internalType": "uint256",
          "name": "",
          "type": "uint256"
        },
        {
          "internalType": "uint256",
          "name": "",
          "type": "uint256"
        }
      ],
      "name": "tokenURIList",
      "outputs": [
        {
          "internalType": "string",
          "name": "",
          "type": "string"
        }
      ],
      "stateMutability": "view",
      "type": "function",
      "constant": true
    },
    {
      "inputs": [
        {
          "internalType": "uint256",
          "name": "",
          "type": "uint256"
        }
      ],
      "name": "totalSellers",
      "outputs": [
        {
          "internalType": "uint256",
          "name": "",
          "type": "uint256"
        }
      ],
      "stateMutability": "view",
      "type": "function",
      "constant": true
    },
    {
      "inputs": [
        {
          "internalType": "address",
          "name": "from",
          "type": "address"
        },
        {
          "internalType": "address",
          "name": "to",
          "type": "address"
        },
        {
          "internalType": "uint256",
          "name": "tokenId",
          "type": "uint256"
        }
      ],
      "name": "transferFrom",
      "outputs": [],
      "stateMutability": "nonpayable",
      "type": "function"
    },
    {
      "inputs": [
        {
          "internalType": "string",
          "name": "productId",
          "type": "string"
        },
        {
          "internalType": "uint256",
          "name": "sellerId",
          "type": "uint256"
        },
        {
          "internalType": "uint256",
          "name": "tokenId",
          "type": "uint256"
        }
      ],
      "name": "verifyOwnership",
      "outputs": [
        {
          "internalType": "bool",
          "name": "",
          "type": "bool"
        }
      ],
      "stateMutability": "nonpayable",
      "type": "function"
    },
    {
      "inputs": [
        {
          "internalType": "uint256",
          "name": "sellerId",
          "type": "uint256"
        },
        {
          "internalType": "uint256",
          "name": "tokenId",
          "type": "uint256"
        }
      ],
      "name": "claimNMint",
      "outputs": [],
      "stateMutability": "nonpayable",
      "type": "function"
    },
    {
      "inputs": [
        {
          "internalType": "uint256",
          "name": "sellerId",
          "type": "uint256"
        }
      ],
      "name": "createSeller",
      "outputs": [],
      "stateMutability": "nonpayable",
      "type": "function"
    },
    {
      "inputs": [
        {
          "internalType": "string",
          "name": "tokenURI",
          "type": "string"
        },
        {
          "internalType": "uint256",
          "name": "sellerId",
          "type": "uint256"
        },
        {
          "internalType": "string",
          "name": "productId",
          "type": "string"
        },
        {
          "internalType": "address",
          "name": "customer",
          "type": "address"
        },
        {
          "internalType": "uint256",
          "name": "expiry",
          "type": "uint256"
        }
      ],
      "name": "createNFT",
      "outputs": [],
      "stateMutability": "nonpayable",
      "type": "function"
    },
    {
      "inputs": [
        {
          "internalType": "address",
          "name": "to",
          "type": "address"
        },
        {
          "internalType": "uint256",
          "name": "tokenId",
          "type": "uint256"
        },
        {
          "internalType": "uint256",
          "name": "sellerId",
          "type": "uint256"
        }
      ],
      "name": "resell",
      "outputs": [],
      "stateMutability": "nonpayable",
      "type": "function"
    },
    {
      "inputs": [
        {
          "internalType": "uint256",
          "name": "tokenId",
          "type": "uint256"
        }
      ],
      "name": "burn",
      "outputs": [],
      "stateMutability": "nonpayable",
      "type": "function"
    },
    {
      "inputs": [
        {
          "internalType": "uint256",
          "name": "sellerId",
          "type": "uint256"
        }
      ],
      "name": "getSellerNFTs",
      "outputs": [
        {
          "internalType": "uint256[]",
          "name": "",
          "type": "uint256[]"
        }
      ],
      "stateMutability": "view",
      "type": "function",
      "constant": true
    },
    {
      "inputs": [],
      "name": "getSellers",
      "outputs": [
        {
          "internalType": "uint256[]",
          "name": "",
          "type": "uint256[]"
        }
      ],
      "stateMutability": "view",
      "type": "function",
      "constant": true
    },
    {
      "inputs": [
        {
          "internalType": "uint256",
          "name": "sellerId",
          "type": "uint256"
        },
        {
          "internalType": "uint256",
          "name": "tokenId",
          "type": "uint256"
        }
      ],
      "name": "getExpiry",
      "outputs": [
        {
          "internalType": "uint256",
          "name": "expiry",
          "type": "uint256"
        }
      ],
      "stateMutability": "view",
      "type": "function",
      "constant": true
    },
    {
      "inputs": [
        {
          "internalType": "uint256",
          "name": "sellerId",
          "type": "uint256"
        },
        {
          "internalType": "uint256",
          "name": "tokenId",
          "type": "uint256"
        }
      ],
      "name": "getCreation",
      "outputs": [
        {
          "internalType": "uint256",
          "name": "creation",
          "type": "uint256"
        }
      ],
      "stateMutability": "view",
      "type": "function",
      "constant": true
    },
    {
      "inputs": [
        {
          "internalType": "uint256",
          "name": "sellerId",
          "type": "uint256"
        },
        {
          "internalType": "uint256",
          "name": "tokenId",
          "type": "uint256"
        }
      ],
      "name": "getSellerWarrantyDetails",
      "outputs": [
        {
          "components": [
            {
              "internalType": "uint256",
              "name": "tokenId",
              "type": "uint256"
            },
            {
              "internalType": "bytes32",
              "name": "verifyHash",
              "type": "bytes32"
            },
            {
              "internalType": "uint256",
              "name": "creationTime",
              "type": "uint256"
            },
            {
              "internalType": "string",
              "name": "productId",
              "type": "string"
            },
            {
              "internalType": "uint256",
              "name": "expiry",
              "type": "uint256"
            },
            {
              "internalType": "address[]",
              "name": "buyers",
              "type": "address[]"
            },
            {
              "internalType": "uint256[]",
              "name": "buyersDate",
              "type": "uint256[]"
            },
            {
              "internalType": "enum NFTWarranty.NFTStatus",
              "name": "status",
              "type": "uint8"
            }
          ],
          "internalType": "struct NFTWarranty.warrantyDetails",
          "name": "",
          "type": "tuple"
        }
      ],
      "stateMutability": "view",
      "type": "function",
      "constant": true
    }
  ],
  "bytecode": "0x60806040523480156200001157600080fd5b506040518060400160405280600b81526020017f4e465457617272616e74790000000000000000000000000000000000000000008152506040518060400160405280600481526020017f4e4654570000000000000000000000000000000000000000000000000000000081525081600090816200008f919062000324565b508060019081620000a1919062000324565b5050506200040b565b600081519050919050565b7f4e487b7100000000000000000000000000000000000000000000000000000000600052604160045260246000fd5b7f4e487b7100000000000000000000000000000000000000000000000000000000600052602260045260246000fd5b600060028204905060018216806200012c57607f821691505b602082108103620001425762000141620000e4565b5b50919050565b60008190508160005260206000209050919050565b60006020601f8301049050919050565b600082821b905092915050565b600060088302620001ac7fffffffffffffffffffffffffffffffffffffffffffffffffffffffffffffffff826200016d565b620001b886836200016d565b95508019841693508086168417925050509392505050565b6000819050919050565b6000819050919050565b600062000205620001ff620001f984620001d0565b620001da565b620001d0565b9050919050565b6000819050919050565b6200022183620001e4565b6200023962000230826200020c565b8484546200017a565b825550505050565b600090565b6200025062000241565b6200025d81848462000216565b505050565b5b8181101562000285576200027960008262000246565b60018101905062000263565b5050565b601f821115620002d4576200029e8162000148565b620002a9846200015d565b81016020851015620002b9578190505b620002d1620002c8856200015d565b83018262000262565b50505b505050565b600082821c905092915050565b6000620002f960001984600802620002d9565b1980831691505092915050565b6000620003148383620002e6565b9150826002028217905092915050565b6200032f82620000aa565b67ffffffffffffffff8111156200034b576200034a620000b5565b5b62000357825462000113565b6200036482828562000289565b600060209050601f8311600181146200039c576000841562000387578287015190505b62000393858262000306565b86555062000403565b601f198416620003ac8662000148565b60005b82811015620003d657848901518255600182019150602085019450602081019050620003af565b86831015620003f65784890151620003f2601f891682620002e6565b8355505b6001600288020188555050505b505050505050565b614a57806200041b6000396000f3fe608060405234801561001057600080fd5b50600436106101da5760003560e01c80637fc5a60f11610104578063afbd903a116100a2578063d963729d11610071578063d963729d146105da578063e985e9c51461060a578063ed4a4a241461063a578063f5601e4b1461066c576101da565b8063afbd903a14610542578063b88d4fde14610572578063c839d38c1461058e578063c87b56dd146105aa576101da565b806395d89b41116100de57806395d89b41146104b7578063a0cd2808146104d5578063a22cb465146104f1578063aa8c78351461050d576101da565b80637fc5a60f146104275780638721f9fc146104575780639567253f14610487576101da565b806323b872dd1161017c5780636352211e1161014b5780636352211e1461037957806369ac439b146103a957806370a08231146103d95780637ee454cb14610409576101da565b806323b872dd146102f55780632d5052d91461031157806342842e0e1461034157806342966c681461035d576101da565b8063095ea7b3116101b8578063095ea7b31461025d57806315f7b2e5146102795780631846f582146102a95780631faea033146102c5576101da565b806301ffc9a7146101df57806306fdde031461020f578063081812fc1461022d575b600080fd5b6101f960048036038101906101f49190612f4c565b610688565b6040516102069190612f94565b60405180910390f35b61021761076a565b6040516102249190613048565b60405180910390f35b610247600480360381019061024291906130a0565b6107fc565b604051610254919061310e565b60405180910390f35b61027760048036038101906102729190613155565b610842565b005b610293600480360381019061028e91906132ca565b610959565b6040516102a09190612f94565b60405180910390f35b6102c360048036038101906102be9190613339565b610a16565b005b6102df60048036038101906102da9190613339565b610b8f565b6040516102ec919061368d565b60405180910390f35b61030f600480360381019061030a91906136af565b610daa565b005b61032b60048036038101906103269190613155565b610e0a565b6040516103389190613711565b60405180910390f35b61035b600480360381019061035691906136af565b610e3b565b005b610377600480360381019061037291906130a0565b610e5b565b005b610393600480360381019061038e91906130a0565b610eff565b6040516103a0919061310e565b60405180910390f35b6103c360048036038101906103be91906130a0565b610fb0565b6040516103d0919061379b565b60405180910390f35b6103f360048036038101906103ee91906137bd565b61101e565b6040516104009190613711565b60405180910390f35b6104116110d5565b60405161041e919061379b565b60405180910390f35b610441600480360381019061043c9190613339565b61112d565b60405161044e9190613711565b60405180910390f35b610471600480360381019061046c91906137bd565b61115f565b60405161047e9190613711565b60405180910390f35b6104a1600480360381019061049c91906130a0565b611177565b6040516104ae9190613711565b60405180910390f35b6104bf61119b565b6040516104cc9190613048565b60405180910390f35b6104ef60048036038101906104ea91906137ea565b61122d565b005b61050b600480360381019061050691906138c9565b611731565b005b61052760048036038101906105229190613339565b611747565b60405161053996959493929190613927565b60405180910390f35b61055c60048036038101906105579190613339565b611825565b6040516105699190613048565b60405180910390f35b61058c60048036038101906105879190613a30565b6118d2565b005b6105a860048036038101906105a39190613ab3565b611934565b005b6105c460048036038101906105bf91906130a0565b611b0a565b6040516105d19190613048565b60405180910390f35b6105f460048036038101906105ef9190613339565b611c1c565b6040516106019190613711565b60405180910390f35b610624600480360381019061061f9190613b06565b611c4e565b6040516106319190612f94565b60405180910390f35b610654600480360381019061064f91906130a0565b611ce2565b60405161066393929190613b46565b60405180910390f35b610686600480360381019061068191906130a0565b611d2c565b005b60007f80ac58cd000000000000000000000000000000000000000000000000000000007bffffffffffffffffffffffffffffffffffffffffffffffffffffffff1916827bffffffffffffffffffffffffffffffffffffffffffffffffffffffff1916148061075357507f5b5e139f000000000000000000000000000000000000000000000000000000007bffffffffffffffffffffffffffffffffffffffffffffffffffffffff1916827bffffffffffffffffffffffffffffffffffffffffffffffffffffffff1916145b80610763575061076282611f26565b5b9050919050565b60606000805461077990613bac565b80601f01602080910402602001604051908101604052809291908181526020018280546107a590613bac565b80156107f25780601f106107c7576101008083540402835291602001916107f2565b820191906000526020600020905b8154815290600101906020018083116107d557829003601f168201915b5050505050905090565b600061080782611f90565b6004600083815260200190815260200160002060009054906101000a900473ffffffffffffffffffffffffffffffffffffffff169050919050565b600061084d82610eff565b90508073ffffffffffffffffffffffffffffffffffffffff168373ffffffffffffffffffffffffffffffffffffffff16036108bd576040517f08c379a00000000000000000000000000000000000000000000000000000000081526004016108b490613c4f565b60405180910390fd5b8073ffffffffffffffffffffffffffffffffffffffff166108dc611fdb565b73ffffffffffffffffffffffffffffffffffffffff16148061090b575061090a81610905611fdb565b611c4e565b5b61094a576040517f08c379a000000000000000000000000000000000000000000000000000000000815260040161094190613ce1565b60405180910390fd5b6109548383611fe3565b505050565b6000338460405160200161096e929190613d01565b60405160208183030381529060405280519060200120600a600085815260200190815260200160002060008481526020019081526020016000206001015403610a0a576001600a6000858152602001908152602001600020600084815260200190815260200160002060070160006101000a81548160ff021916908360038111156109fc576109fb613558565b5b021790555060019050610a0f565b600090505b9392505050565b60016003811115610a2a57610a29613558565b5b600a6000848152602001908152602001600020600083815260200190815260200160002060070160009054906101000a900460ff166003811115610a7157610a70613558565b5b14610a7b57600080fd5b610a85338261209c565b610b3b81600b600085815260200190815260200160002060008481526020019081526020016000208054610ab890613bac565b80601f0160208091040260200160405190810160405280929190818152602001828054610ae490613bac565b8015610b315780601f10610b0657610100808354040283529160200191610b31565b820191906000526020600020905b815481529060010190602001808311610b1457829003601f168201915b5050505050612275565b6002600a6000848152602001908152602001600020600083815260200190815260200160002060070160006101000a81548160ff02191690836003811115610b8657610b85613558565b5b02179055505050565b610b97612d14565b600a6000848152602001908152602001600020600083815260200190815260200160002060405180610100016040529081600082015481526020016001820154815260200160028201548152602001600382018054610bf590613bac565b80601f0160208091040260200160405190810160405280929190818152602001828054610c2190613bac565b8015610c6e5780601f10610c4357610100808354040283529160200191610c6e565b820191906000526020600020905b815481529060010190602001808311610c5157829003601f168201915b505050505081526020016004820154815260200160058201805480602002602001604051908101604052809291908181526020018280548015610d0657602002820191906000526020600020905b8160009054906101000a900473ffffffffffffffffffffffffffffffffffffffff1673ffffffffffffffffffffffffffffffffffffffff1681526020019060010190808311610cbc575b5050505050815260200160068201805480602002602001604051908101604052809291908181526020018280548015610d5e57602002820191906000526020600020905b815481526020019060010190808311610d4a575b505050505081526020016007820160009054906101000a900460ff166003811115610d8c57610d8b613558565b5b6003811115610d9e57610d9d613558565b5b81525050905092915050565b610dbb610db5611fdb565b826122e2565b610dfa576040517f08c379a0000000000000000000000000000000000000000000000000000000008152600401610df190613da3565b60405180910390fd5b610e05838383612377565b505050565b600c6020528160005260406000208181548110610e2657600080fd5b90600052602060002001600091509150505481565b610e56838383604051806020016040528060008152506118d2565b505050565b6000620f424082610e6c9190613e21565b9050600a6000828152602001908152602001600020600083815260200190815260200160002060040154421015610ea257600080fd5b610eab826125dd565b6003600a6000838152602001908152602001600020600084815260200190815260200160002060070160006101000a81548160ff02191690836003811115610ef657610ef5613558565b5b02179055505050565b6000806002600084815260200190815260200160002060009054906101000a900473ffffffffffffffffffffffffffffffffffffffff169050600073ffffffffffffffffffffffffffffffffffffffff168173ffffffffffffffffffffffffffffffffffffffff1603610fa7576040517f08c379a0000000000000000000000000000000000000000000000000000000008152600401610f9e90613e9e565b60405180910390fd5b80915050919050565b60606009600083815260200190815260200160002060030180548060200260200160405190810160405280929190818152602001828054801561101257602002820191906000526020600020905b815481526020019060010190808311610ffe575b50505050509050919050565b60008073ffffffffffffffffffffffffffffffffffffffff168273ffffffffffffffffffffffffffffffffffffffff160361108e576040517f08c379a000000000000000000000000000000000000000000000000000000000815260040161108590613f30565b60405180910390fd5b600360008373ffffffffffffffffffffffffffffffffffffffff1673ffffffffffffffffffffffffffffffffffffffff168152602001908152602001600020549050919050565b6060600780548060200260200160405190810160405280929190818152602001828054801561112357602002820191906000526020600020905b81548152602001906001019080831161110f575b5050505050905090565b6000600a6000848152602001908152602001600020600083815260200190815260200160002060040154905092915050565b60086020528060005260406000206000915090505481565b6007818154811061118757600080fd5b906000526020600020016000915090505481565b6060600180546111aa90613bac565b80601f01602080910402602001604051908101604052809291908181526020018280546111d690613bac565b80156112235780601f106111f857610100808354040283529160200191611223565b820191906000526020600020905b81548152906001019060200180831161120657829003601f168201915b5050505050905090565b6009600085815260200190815260200160002060020160009054906101000a900473ffffffffffffffffffffffffffffffffffffffff1673ffffffffffffffffffffffffffffffffffffffff163373ffffffffffffffffffffffffffffffffffffffff16146112d1576040517f08c379a00000000000000000000000000000000000000000000000000000000081526004016112c890613f9c565b60405180910390fd5b6112d9612d14565b4281604001818152505082846040516020016112f6929190613d01565b604051602081830303815290604052805190602001208160200181815250508181604001516113259190613fbc565b81608001818152505060006009600087815260200190815260200160002060010154620f4240600960008981526020019081526020016000206000015461136c9190614012565b6113769190613fbc565b905084600a6000888152602001908152602001600020600083815260200190815260200160002060030190816113ac9190614218565b506009600087815260200190815260200160002060030181908060018154018082558091505060019003906000526020600020016000909190919091505580600a60008881526020019081526020016000206000838152602001908152602001600020600001819055508385604051602001611429929190613d01565b60405160208183030381529060405280519060200120600a600088815260200190815260200160002060008381526020019081526020016000206001018190555081600a6000888152602001908152602001600020600083815260200190815260200160002060008201518160000155602082015181600101556040820151816002015560608201518160030190816114c29190614218565b506080820151816004015560a08201518160050190805190602001906114e9929190612d6e565b5060c0820151816006019080519060200190611506929190612df8565b5060e08201518160070160006101000a81548160ff0219169083600381111561153257611531613558565b5b0217905550905050600a60008781526020019081526020016000206000828152602001908152602001600020600501849080600181540180825580915050600190039060005260206000200160009091909190916101000a81548173ffffffffffffffffffffffffffffffffffffffff021916908373ffffffffffffffffffffffffffffffffffffffff1602179055506000600a6000888152602001908152602001600020600083815260200190815260200160002060070160006101000a81548160ff0219169083600381111561160d5761160c613558565b5b0217905550600a600087815260200190815260200160002060008281526020019081526020016000206006018260400151908060018154018082558091505060019003906000526020600020016000909190919091505560096000878152602001908152602001600020600101600081548092919061168b906142ea565b9190505550600c60008573ffffffffffffffffffffffffffffffffffffffff1673ffffffffffffffffffffffffffffffffffffffff16815260200190815260200160002081908060018154018082558091505060019003906000526020600020016000909190919091505586600b6000888152602001908152602001600020600083815260200190815260200160002090816117279190614218565b5050505050505050565b61174361173c611fdb565b8383612630565b5050565b600a6020528160005260406000206020528060005260406000206000915091505080600001549080600101549080600201549080600301805461178990613bac565b80601f01602080910402602001604051908101604052809291908181526020018280546117b590613bac565b80156118025780601f106117d757610100808354040283529160200191611802565b820191906000526020600020905b8154815290600101906020018083116117e557829003601f168201915b5050505050908060040154908060070160009054906101000a900460ff16905086565b600b60205281600052604060002060205280600052604060002060009150915050805461185190613bac565b80601f016020809104026020016040519081016040528092919081815260200182805461187d90613bac565b80156118ca5780601f1061189f576101008083540402835291602001916118ca565b820191906000526020600020905b8154815290600101906020018083116118ad57829003601f168201915b505050505081565b6118e36118dd611fdb565b836122e2565b611922576040517f08c379a000000000000000000000000000000000000000000000000000000000815260040161191990613da3565b60405180910390fd5b61192e8484848461279c565b50505050565b3373ffffffffffffffffffffffffffffffffffffffff1661195483610eff565b73ffffffffffffffffffffffffffffffffffffffff16146119aa576040517f08c379a00000000000000000000000000000000000000000000000000000000081526004016119a19061437e565b60405180910390fd5b82600a600083815260200190815260200160002060008481526020019081526020016000206003016040516020016119e3929190614422565b60405160208183030381529060405280519060200120600a6000838152602001908152602001600020600084815260200190815260200160002060010181905550600a60008281526020019081526020016000206000838152602001908152602001600020600501839080600181540180825580915050600190039060005260206000200160009091909190916101000a81548173ffffffffffffffffffffffffffffffffffffffff021916908373ffffffffffffffffffffffffffffffffffffffff160217905550600a60008281526020019081526020016000206000838152602001908152602001600020600601429080600181540180825580915050600190039060005260206000200160009091909190915055611b05338484612377565b505050565b6060611b1582611f90565b6000600660008481526020019081526020016000208054611b3590613bac565b80601f0160208091040260200160405190810160405280929190818152602001828054611b6190613bac565b8015611bae5780601f10611b8357610100808354040283529160200191611bae565b820191906000526020600020905b815481529060010190602001808311611b9157829003601f168201915b505050505090506000611bbf6127f8565b90506000815103611bd4578192505050611c17565b600082511115611c09578082604051602001611bf192919061448e565b60405160208183030381529060405292505050611c17565b611c128461280f565b925050505b919050565b6000600a6000848152602001908152602001600020600083815260200190815260200160002060020154905092915050565b6000600560008473ffffffffffffffffffffffffffffffffffffffff1673ffffffffffffffffffffffffffffffffffffffff16815260200190815260200160002060008373ffffffffffffffffffffffffffffffffffffffff1673ffffffffffffffffffffffffffffffffffffffff16815260200190815260200160002060009054906101000a900460ff16905092915050565b60096020528060005260406000206000915090508060000154908060010154908060020160009054906101000a900473ffffffffffffffffffffffffffffffffffffffff16905083565b600073ffffffffffffffffffffffffffffffffffffffff166009600083815260200190815260200160002060020160009054906101000a900473ffffffffffffffffffffffffffffffffffffffff1673ffffffffffffffffffffffffffffffffffffffff1614611dd1576040517f08c379a0000000000000000000000000000000000000000000000000000000008152600401611dc8906144fe565b60405180910390fd5b611dd9612e45565b8181600001818152505033816040019073ffffffffffffffffffffffffffffffffffffffff16908173ffffffffffffffffffffffffffffffffffffffff168152505060008160200181815250508060096000848152602001908152602001600020600082015181600001556020820151816001015560408201518160020160006101000a81548173ffffffffffffffffffffffffffffffffffffffff021916908373ffffffffffffffffffffffffffffffffffffffff1602179055506060820151816003019080519060200190611eb1929190612df8565b50905050600782908060018154018082558091505060019003906000526020600020016000909190919091505581600860003373ffffffffffffffffffffffffffffffffffffffff1673ffffffffffffffffffffffffffffffffffffffff168152602001908152602001600020819055505050565b60007f01ffc9a7000000000000000000000000000000000000000000000000000000007bffffffffffffffffffffffffffffffffffffffffffffffffffffffff1916827bffffffffffffffffffffffffffffffffffffffffffffffffffffffff1916149050919050565b611f9981612877565b611fd8576040517f08c379a0000000000000000000000000000000000000000000000000000000008152600401611fcf90613e9e565b60405180910390fd5b50565b600033905090565b816004600083815260200190815260200160002060006101000a81548173ffffffffffffffffffffffffffffffffffffffff021916908373ffffffffffffffffffffffffffffffffffffffff160217905550808273ffffffffffffffffffffffffffffffffffffffff1661205683610eff565b73ffffffffffffffffffffffffffffffffffffffff167f8c5be1e5ebec7d5bd14f71427d1e84f3dd0314c0f7b2291e5b200ac8c7c3b92560405160405180910390a45050565b600073ffffffffffffffffffffffffffffffffffffffff168273ffffffffffffffffffffffffffffffffffffffff160361210b576040517f08c379a00000000000000000000000000000000000000000000000000000000081526004016121029061456a565b60405180910390fd5b61211481612877565b15612154576040517f08c379a000000000000000000000000000000000000000000000000000000000815260040161214b906145d6565b60405180910390fd5b612160600083836128e3565b6001600360008473ffffffffffffffffffffffffffffffffffffffff1673ffffffffffffffffffffffffffffffffffffffff16815260200190815260200160002060008282546121b09190613fbc565b92505081905550816002600083815260200190815260200160002060006101000a81548173ffffffffffffffffffffffffffffffffffffffff021916908373ffffffffffffffffffffffffffffffffffffffff160217905550808273ffffffffffffffffffffffffffffffffffffffff16600073ffffffffffffffffffffffffffffffffffffffff167fddf252ad1be2c89b69c2b068fc378daa952ba7f163c4a11628f55a4df523b3ef60405160405180910390a4612271600083836128e8565b5050565b61227e82612877565b6122bd576040517f08c379a00000000000000000000000000000000000000000000000000000000081526004016122b490614668565b60405180910390fd5b806006600084815260200190815260200160002090816122dd9190614218565b505050565b6000806122ee83610eff565b90508073ffffffffffffffffffffffffffffffffffffffff168473ffffffffffffffffffffffffffffffffffffffff161480612330575061232f8185611c4e565b5b8061236e57508373ffffffffffffffffffffffffffffffffffffffff16612356846107fc565b73ffffffffffffffffffffffffffffffffffffffff16145b91505092915050565b8273ffffffffffffffffffffffffffffffffffffffff1661239782610eff565b73ffffffffffffffffffffffffffffffffffffffff16146123ed576040517f08c379a00000000000000000000000000000000000000000000000000000000081526004016123e4906146fa565b60405180910390fd5b600073ffffffffffffffffffffffffffffffffffffffff168273ffffffffffffffffffffffffffffffffffffffff160361245c576040517f08c379a00000000000000000000000000000000000000000000000000000000081526004016124539061478c565b60405180910390fd5b6124678383836128e3565b612472600082611fe3565b6001600360008573ffffffffffffffffffffffffffffffffffffffff1673ffffffffffffffffffffffffffffffffffffffff16815260200190815260200160002060008282546124c291906147ac565b925050819055506001600360008473ffffffffffffffffffffffffffffffffffffffff1673ffffffffffffffffffffffffffffffffffffffff16815260200190815260200160002060008282546125199190613fbc565b92505081905550816002600083815260200190815260200160002060006101000a81548173ffffffffffffffffffffffffffffffffffffffff021916908373ffffffffffffffffffffffffffffffffffffffff160217905550808273ffffffffffffffffffffffffffffffffffffffff168473ffffffffffffffffffffffffffffffffffffffff167fddf252ad1be2c89b69c2b068fc378daa952ba7f163c4a11628f55a4df523b3ef60405160405180910390a46125d88383836128e8565b505050565b6125e6816128ed565b600060066000838152602001908152602001600020805461260690613bac565b90501461262d5760066000828152602001908152602001600020600061262c9190612e83565b5b50565b8173ffffffffffffffffffffffffffffffffffffffff168373ffffffffffffffffffffffffffffffffffffffff160361269e576040517f08c379a00000000000000000000000000000000000000000000000000000000081526004016126959061482c565b60405180910390fd5b80600560008573ffffffffffffffffffffffffffffffffffffffff1673ffffffffffffffffffffffffffffffffffffffff16815260200190815260200160002060008473ffffffffffffffffffffffffffffffffffffffff1673ffffffffffffffffffffffffffffffffffffffff16815260200190815260200160002060006101000a81548160ff0219169083151502179055508173ffffffffffffffffffffffffffffffffffffffff168373ffffffffffffffffffffffffffffffffffffffff167f17307eab39ab6107e8899845ad3d59bd9653f200f220920489ca2b5937696c318360405161278f9190612f94565b60405180910390a3505050565b6127a7848484612377565b6127b384848484612a0a565b6127f2576040517f08c379a00000000000000000000000000000000000000000000000000000000081526004016127e9906148be565b60405180910390fd5b50505050565b606060405180602001604052806000815250905090565b606061281a82611f90565b60006128246127f8565b90506000815111612844576040518060200160405280600081525061286f565b8061284e84612b91565b60405160200161285f92919061448e565b6040516020818303038152906040525b915050919050565b60008073ffffffffffffffffffffffffffffffffffffffff166002600084815260200190815260200160002060009054906101000a900473ffffffffffffffffffffffffffffffffffffffff1673ffffffffffffffffffffffffffffffffffffffff1614159050919050565b505050565b505050565b60006128f882610eff565b9050612906816000846128e3565b612911600083611fe3565b6001600360008373ffffffffffffffffffffffffffffffffffffffff1673ffffffffffffffffffffffffffffffffffffffff168152602001908152602001600020600082825461296191906147ac565b925050819055506002600083815260200190815260200160002060006101000a81549073ffffffffffffffffffffffffffffffffffffffff021916905581600073ffffffffffffffffffffffffffffffffffffffff168273ffffffffffffffffffffffffffffffffffffffff167fddf252ad1be2c89b69c2b068fc378daa952ba7f163c4a11628f55a4df523b3ef60405160405180910390a4612a06816000846128e8565b5050565b6000612a2b8473ffffffffffffffffffffffffffffffffffffffff16612cf1565b15612b84578373ffffffffffffffffffffffffffffffffffffffff1663150b7a02612a54611fdb565b8786866040518563ffffffff1660e01b8152600401612a769493929190614933565b6020604051808303816000875af1925050508015612ab257506040513d601f19601f82011682018060405250810190612aaf9190614994565b60015b612b34573d8060008114612ae2576040519150601f19603f3d011682016040523d82523d6000602084013e612ae7565b606091505b506000815103612b2c576040517f08c379a0000000000000000000000000000000000000000000000000000000008152600401612b23906148be565b60405180910390fd5b805181602001fd5b63150b7a0260e01b7bffffffffffffffffffffffffffffffffffffffffffffffffffffffff1916817bffffffffffffffffffffffffffffffffffffffffffffffffffffffff191614915050612b89565b600190505b949350505050565b606060008203612bd8576040518060400160405280600181526020017f30000000000000000000000000000000000000000000000000000000000000008152509050612cec565b600082905060005b60008214612c0a578080612bf3906142ea565b915050600a82612c039190613e21565b9150612be0565b60008167ffffffffffffffff811115612c2657612c2561319f565b5b6040519080825280601f01601f191660200182016040528015612c585781602001600182028036833780820191505090505b5090505b60008514612ce557600182612c7191906147ac565b9150600a85612c8091906149c1565b6030612c8c9190613fbc565b60f81b818381518110612ca257612ca16149f2565b5b60200101907effffffffffffffffffffffffffffffffffffffffffffffffffffffffffffff1916908160001a905350600a85612cde9190613e21565b9450612c5c565b8093505050505b919050565b6000808273ffffffffffffffffffffffffffffffffffffffff163b119050919050565b6040518061010001604052806000815260200160008019168152602001600081526020016060815260200160008152602001606081526020016060815260200160006003811115612d6857612d67613558565b5b81525090565b828054828255906000526020600020908101928215612de7579160200282015b82811115612de65782518260006101000a81548173ffffffffffffffffffffffffffffffffffffffff021916908373ffffffffffffffffffffffffffffffffffffffff16021790555091602001919060010190612d8e565b5b509050612df49190612ec3565b5090565b828054828255906000526020600020908101928215612e34579160200282015b82811115612e33578251825591602001919060010190612e18565b5b509050612e419190612ec3565b5090565b60405180608001604052806000815260200160008152602001600073ffffffffffffffffffffffffffffffffffffffff168152602001606081525090565b508054612e8f90613bac565b6000825580601f10612ea15750612ec0565b601f016020900490600052602060002090810190612ebf9190612ec3565b5b50565b5b80821115612edc576000816000905550600101612ec4565b5090565b6000604051905090565b600080fd5b600080fd5b60007fffffffff0000000000000000000000000000000000000000000000000000000082169050919050565b612f2981612ef4565b8114612f3457600080fd5b50565b600081359050612f4681612f20565b92915050565b600060208284031215612f6257612f61612eea565b5b6000612f7084828501612f37565b91505092915050565b60008115159050919050565b612f8e81612f79565b82525050565b6000602082019050612fa96000830184612f85565b92915050565b600081519050919050565b600082825260208201905092915050565b60005b83811015612fe9578082015181840152602081019050612fce565b83811115612ff8576000848401525b50505050565b6000601f19601f8301169050919050565b600061301a82612faf565b6130248185612fba565b9350613034818560208601612fcb565b61303d81612ffe565b840191505092915050565b60006020820190508181036000830152613062818461300f565b905092915050565b6000819050919050565b61307d8161306a565b811461308857600080fd5b50565b60008135905061309a81613074565b92915050565b6000602082840312156130b6576130b5612eea565b5b60006130c48482850161308b565b91505092915050565b600073ffffffffffffffffffffffffffffffffffffffff82169050919050565b60006130f8826130cd565b9050919050565b613108816130ed565b82525050565b600060208201905061312360008301846130ff565b92915050565b613132816130ed565b811461313d57600080fd5b50565b60008135905061314f81613129565b92915050565b6000806040838503121561316c5761316b612eea565b5b600061317a85828601613140565b925050602061318b8582860161308b565b9150509250929050565b600080fd5b600080fd5b7f4e487b7100000000000000000000000000000000000000000000000000000000600052604160045260246000fd5b6131d782612ffe565b810181811067ffffffffffffffff821117156131f6576131f561319f565b5b80604052505050565b6000613209612ee0565b905061321582826131ce565b919050565b600067ffffffffffffffff8211156132355761323461319f565b5b61323e82612ffe565b9050602081019050919050565b82818337600083830152505050565b600061326d6132688461321a565b6131ff565b9050828152602081018484840111156132895761328861319a565b5b61329484828561324b565b509392505050565b600082601f8301126132b1576132b0613195565b5b81356132c184826020860161325a565b91505092915050565b6000806000606084860312156132e3576132e2612eea565b5b600084013567ffffffffffffffff81111561330157613300612eef565b5b61330d8682870161329c565b935050602061331e8682870161308b565b925050604061332f8682870161308b565b9150509250925092565b600080604083850312156133505761334f612eea565b5b600061335e8582860161308b565b925050602061336f8582860161308b565b9150509250929050565b6133828161306a565b82525050565b6000819050919050565b61339b81613388565b82525050565b600082825260208201905092915050565b60006133bd82612faf565b6133c781856133a1565b93506133d7818560208601612fcb565b6133e081612ffe565b840191505092915050565b600081519050919050565b600082825260208201905092915050565b6000819050602082019050919050565b613420816130ed565b82525050565b60006134328383613417565b60208301905092915050565b6000602082019050919050565b6000613456826133eb565b61346081856133f6565b935061346b83613407565b8060005b8381101561349c5781516134838882613426565b975061348e8361343e565b92505060018101905061346f565b5085935050505092915050565b600081519050919050565b600082825260208201905092915050565b6000819050602082019050919050565b60006134e18383613379565b60208301905092915050565b6000602082019050919050565b6000613505826134a9565b61350f81856134b4565b935061351a836134c5565b8060005b8381101561354b57815161353288826134d5565b975061353d836134ed565b92505060018101905061351e565b5085935050505092915050565b7f4e487b7100000000000000000000000000000000000000000000000000000000600052602160045260246000fd5b6004811061359857613597613558565b5b50565b60008190506135a982613587565b919050565b60006135b98261359b565b9050919050565b6135c9816135ae565b82525050565b6000610100830160008301516135e86000860182613379565b5060208301516135fb6020860182613392565b50604083015161360e6040860182613379565b506060830151848203606086015261362682826133b2565b915050608083015161363b6080860182613379565b5060a083015184820360a0860152613653828261344b565b91505060c083015184820360c086015261366d82826134fa565b91505060e083015161368260e08601826135c0565b508091505092915050565b600060208201905081810360008301526136a781846135cf565b905092915050565b6000806000606084860312156136c8576136c7612eea565b5b60006136d686828701613140565b93505060206136e786828701613140565b92505060406136f88682870161308b565b9150509250925092565b61370b8161306a565b82525050565b60006020820190506137266000830184613702565b92915050565b600082825260208201905092915050565b6000613748826134a9565b613752818561372c565b935061375d836134c5565b8060005b8381101561378e57815161377588826134d5565b9750613780836134ed565b925050600181019050613761565b5085935050505092915050565b600060208201905081810360008301526137b5818461373d565b905092915050565b6000602082840312156137d3576137d2612eea565b5b60006137e184828501613140565b91505092915050565b600080600080600060a0868803121561380657613805612eea565b5b600086013567ffffffffffffffff81111561382457613823612eef565b5b6138308882890161329c565b95505060206138418882890161308b565b945050604086013567ffffffffffffffff81111561386257613861612eef565b5b61386e8882890161329c565b935050606061387f88828901613140565b92505060806138908882890161308b565b9150509295509295909350565b6138a681612f79565b81146138b157600080fd5b50565b6000813590506138c38161389d565b92915050565b600080604083850312156138e0576138df612eea565b5b60006138ee85828601613140565b92505060206138ff858286016138b4565b9150509250929050565b61391281613388565b82525050565b613921816135ae565b82525050565b600060c08201905061393c6000830189613702565b6139496020830188613909565b6139566040830187613702565b8181036060830152613968818661300f565b90506139776080830185613702565b61398460a0830184613918565b979650505050505050565b600067ffffffffffffffff8211156139aa576139a961319f565b5b6139b382612ffe565b9050602081019050919050565b60006139d36139ce8461398f565b6131ff565b9050828152602081018484840111156139ef576139ee61319a565b5b6139fa84828561324b565b509392505050565b600082601f830112613a1757613a16613195565b5b8135613a278482602086016139c0565b91505092915050565b60008060008060808587031215613a4a57613a49612eea565b5b6000613a5887828801613140565b9450506020613a6987828801613140565b9350506040613a7a8782880161308b565b925050606085013567ffffffffffffffff811115613a9b57613a9a612eef565b5b613aa787828801613a02565b91505092959194509250565b600080600060608486031215613acc57613acb612eea565b5b6000613ada86828701613140565b9350506020613aeb8682870161308b565b9250506040613afc8682870161308b565b9150509250925092565b60008060408385031215613b1d57613b1c612eea565b5b6000613b2b85828601613140565b9250506020613b3c85828601613140565b9150509250929050565b6000606082019050613b5b6000830186613702565b613b686020830185613702565b613b7560408301846130ff565b949350505050565b7f4e487b7100000000000000000000000000000000000000000000000000000000600052602260045260246000fd5b60006002820490506001821680613bc457607f821691505b602082108103613bd757613bd6613b7d565b5b50919050565b7f4552433732313a20617070726f76616c20746f2063757272656e74206f776e6560008201527f7200000000000000000000000000000000000000000000000000000000000000602082015250565b6000613c39602183612fba565b9150613c4482613bdd565b604082019050919050565b60006020820190508181036000830152613c6881613c2c565b9050919050565b7f4552433732313a20617070726f76652063616c6c6572206973206e6f7420746f60008201527f6b656e206f776e6572206e6f7220617070726f76656420666f7220616c6c0000602082015250565b6000613ccb603e83612fba565b9150613cd682613c6f565b604082019050919050565b60006020820190508181036000830152613cfa81613cbe565b9050919050565b6000604082019050613d1660008301856130ff565b8181036020830152613d28818461300f565b90509392505050565b7f4552433732313a2063616c6c6572206973206e6f7420746f6b656e206f776e6560008201527f72206e6f7220617070726f766564000000000000000000000000000000000000602082015250565b6000613d8d602e83612fba565b9150613d9882613d31565b604082019050919050565b60006020820190508181036000830152613dbc81613d80565b9050919050565b7f4e487b7100000000000000000000000000000000000000000000000000000000600052601260045260246000fd5b7f4e487b7100000000000000000000000000000000000000000000000000000000600052601160045260246000fd5b6000613e2c8261306a565b9150613e378361306a565b925082613e4757613e46613dc3565b5b828204905092915050565b7f4552433732313a20696e76616c696420746f6b656e2049440000000000000000600082015250565b6000613e88601883612fba565b9150613e9382613e52565b602082019050919050565b60006020820190508181036000830152613eb781613e7b565b9050919050565b7f4552433732313a2061646472657373207a65726f206973206e6f74206120766160008201527f6c6964206f776e65720000000000000000000000000000000000000000000000602082015250565b6000613f1a602983612fba565b9150613f2582613ebe565b604082019050919050565b60006020820190508181036000830152613f4981613f0d565b9050919050565b7f4d757374206265206f776e657200000000000000000000000000000000000000600082015250565b6000613f86600d83612fba565b9150613f9182613f50565b602082019050919050565b60006020820190508181036000830152613fb581613f79565b9050919050565b6000613fc78261306a565b9150613fd28361306a565b9250827fffffffffffffffffffffffffffffffffffffffffffffffffffffffffffffffff0382111561400757614006613df2565b5b828201905092915050565b600061401d8261306a565b91506140288361306a565b9250817fffffffffffffffffffffffffffffffffffffffffffffffffffffffffffffffff048311821515161561406157614060613df2565b5b828202905092915050565b60008190508160005260206000209050919050565b60006020601f8301049050919050565b600082821b905092915050565b6000600883026140ce7fffffffffffffffffffffffffffffffffffffffffffffffffffffffffffffffff82614091565b6140d88683614091565b95508019841693508086168417925050509392505050565b6000819050919050565b600061411561411061410b8461306a565b6140f0565b61306a565b9050919050565b6000819050919050565b61412f836140fa565b61414361413b8261411c565b84845461409e565b825550505050565b600090565b61415861414b565b614163818484614126565b505050565b5b818110156141875761417c600082614150565b600181019050614169565b5050565b601f8211156141cc5761419d8161406c565b6141a684614081565b810160208510156141b5578190505b6141c96141c185614081565b830182614168565b50505b505050565b600082821c905092915050565b60006141ef600019846008026141d1565b1980831691505092915050565b600061420883836141de565b9150826002028217905092915050565b61422182612faf565b67ffffffffffffffff81111561423a5761423961319f565b5b6142448254613bac565b61424f82828561418b565b600060209050601f8311600181146142825760008415614270578287015190505b61427a85826141fc565b8655506142e2565b601f1984166142908661406c565b60005b828110156142b857848901518255600182019150602085019450602081019050614293565b868310156142d557848901516142d1601f8916826141de565b8355505b6001600288020188555050505b505050505050565b60006142f58261306a565b91507fffffffffffffffffffffffffffffffffffffffffffffffffffffffffffffffff820361432757614326613df2565b5b600182019050919050565b7f4e6f74204f776e65720000000000000000000000000000000000000000000000600082015250565b6000614368600983612fba565b915061437382614332565b602082019050919050565b600060208201905081810360008301526143978161435b565b9050919050565b600081546143ab81613bac565b6143b58186612fba565b945060018216600081146143d057600181146143e657614419565b60ff198316865281151560200286019350614419565b6143ef8561406c565b60005b83811015614411578154818901526001820191506020810190506143f2565b808801955050505b50505092915050565b600060408201905061443760008301856130ff565b8181036020830152614449818461439e565b90509392505050565b600081905092915050565b600061446882612faf565b6144728185614452565b9350614482818560208601612fcb565b80840191505092915050565b600061449a828561445d565b91506144a6828461445d565b91508190509392505050565b7f53656c6c657220416c7265616479206578697374000000000000000000000000600082015250565b60006144e8601483612fba565b91506144f3826144b2565b602082019050919050565b60006020820190508181036000830152614517816144db565b9050919050565b7f4552433732313a206d696e7420746f20746865207a65726f2061646472657373600082015250565b6000614554602083612fba565b915061455f8261451e565b602082019050919050565b6000602082019050818103600083015261458381614547565b9050919050565b7f4552433732313a20746f6b656e20616c7265616479206d696e74656400000000600082015250565b60006145c0601c83612fba565b91506145cb8261458a565b602082019050919050565b600060208201905081810360008301526145ef816145b3565b9050919050565b7f45524337323155524953746f726167653a2055524920736574206f66206e6f6e60008201527f6578697374656e7420746f6b656e000000000000000000000000000000000000602082015250565b6000614652602e83612fba565b915061465d826145f6565b604082019050919050565b6000602082019050818103600083015261468181614645565b9050919050565b7f4552433732313a207472616e736665722066726f6d20696e636f72726563742060008201527f6f776e6572000000000000000000000000000000000000000000000000000000602082015250565b60006146e4602583612fba565b91506146ef82614688565b604082019050919050565b60006020820190508181036000830152614713816146d7565b9050919050565b7f4552433732313a207472616e7366657220746f20746865207a65726f2061646460008201527f7265737300000000000000000000000000000000000000000000000000000000602082015250565b6000614776602483612fba565b91506147818261471a565b604082019050919050565b600060208201905081810360008301526147a581614769565b9050919050565b60006147b78261306a565b91506147c28361306a565b9250828210156147d5576147d4613df2565b5b828203905092915050565b7f4552433732313a20617070726f766520746f2063616c6c657200000000000000600082015250565b6000614816601983612fba565b9150614821826147e0565b602082019050919050565b6000602082019050818103600083015261484581614809565b9050919050565b7f4552433732313a207472616e7366657220746f206e6f6e20455243373231526560008201527f63656976657220696d706c656d656e7465720000000000000000000000000000602082015250565b60006148a8603283612fba565b91506148b38261484c565b604082019050919050565b600060208201905081810360008301526148d78161489b565b9050919050565b600081519050919050565b600082825260208201905092915050565b6000614905826148de565b61490f81856148e9565b935061491f818560208601612fcb565b61492881612ffe565b840191505092915050565b600060808201905061494860008301876130ff565b61495560208301866130ff565b6149626040830185613702565b818103606083015261497481846148fa565b905095945050505050565b60008151905061498e81612f20565b92915050565b6000602082840312156149aa576149a9612eea565b5b60006149b88482850161497f565b91505092915050565b60006149cc8261306a565b91506149d78361306a565b9250826149e7576149e6613dc3565b5b828206905092915050565b7f4e487b7100000000000000000000000000000000000000000000000000000000600052603260045260246000fdfea26469706673582212205d083c31e9efac92614f3982c473f01aa0bb268daac760966c56a2e0293009f864736f6c634300080f0033",
  "immutableReferences": {},
  "source": "// SPDX-License-Identifier: GPL-3.0\r\npragma solidity ^0.8.7;\r\n\r\nimport \"@openzeppelin/contracts/token/ERC721/extensions/ERC721URIStorage.sol\";\r\nimport \"@openzeppelin/contracts/utils/Counters.sol\";\r\n\r\ncontract NFTWarranty is ERC721URIStorage {\r\n    //using Counters for Counters.Counter;\r\n    //Counters.Counter private _tokenIds;\r\n\r\n        constructor() ERC721(\"NFTWarranty\", \"NFTW\") {}\r\n\r\n     struct seller{\r\n        uint256 id;\r\n        uint256 itemCounter;\r\n        address owner;\r\n        uint256 [] allNFTs;\r\n        //string tokenURI;\r\n     \r\n    }\r\n     struct warrantyDetails{\r\n        uint256 tokenId;\r\n        bytes32 verifyHash;\r\n        uint256 creationTime;\r\n        string  productId;\r\n        uint256 expiry;\r\n        address[]buyers;\r\n        uint256[]buyersDate;\r\n        NFTStatus status;\r\n    }\r\n    //verify ownership\r\n    enum NFTStatus{\r\n        Pending,\r\n        Verified,\r\n        Active,\r\n        Expired\r\n    }\r\n    \r\n    uint256 [] public totalSellers;\r\n    mapping (address=>uint256) public addressToSellerId;\r\n    mapping(uint256=>seller) public allSellers;\r\n    mapping(uint256=>mapping(uint256=>warrantyDetails)) public sellerWarrantyDetails;\r\n    mapping(uint256=>mapping(uint256=>string)) public tokenURIList;\r\n    mapping (address=>uint256[]) public buyersCollection;\r\n\r\n    function verifyOwnership(string memory productId,uint256 sellerId,uint256 tokenId)public returns(bool){\r\n        //require(sellerWarrantyDetails[sellerId][tokenId].verifyHash!=bytes32(0x0),\"Item doesn't Exist\");\r\n        \r\n        if(sellerWarrantyDetails[sellerId][tokenId].verifyHash==keccak256(abi.encode(msg.sender,productId))){\r\n            sellerWarrantyDetails[sellerId][tokenId].status = NFTStatus.Verified;\r\n            return true;\r\n            \r\n        }\r\n        else return false;\r\n    }\r\n    function claimNMint(uint256 sellerId,uint256 tokenId)public {\r\n        require(sellerWarrantyDetails[sellerId][tokenId].status == NFTStatus.Verified);\r\n        _mint(msg.sender,tokenId);\r\n        _setTokenURI(tokenId,tokenURIList[sellerId][tokenId]); \r\n        sellerWarrantyDetails[sellerId][tokenId].status =  NFTStatus.Active;\r\n \r\n\r\n    }\r\n    function createSeller(uint256 sellerId) public{\r\n        require(allSellers[sellerId].owner==address(0x0),\"Seller Already exist\");\r\n         seller memory newSeller;\r\n         newSeller.id = sellerId;\r\n         newSeller.owner = msg.sender;\r\n         newSeller.itemCounter = 0;\r\n         allSellers[sellerId] = newSeller;\r\n         totalSellers.push(sellerId);\r\n         addressToSellerId[msg.sender] = sellerId;\r\n\r\n    }\r\n    function createNFT(string memory tokenURI,uint256 sellerId,string memory productId,address customer,uint256 expiry)public{\r\n      //require(tokenURIList[sellerId][allSellers[sellerId].itemCounter].length==0,\"\");\r\n\r\n      require(msg.sender== allSellers[sellerId].owner,\"Must be owner\");\r\n      warrantyDetails memory newNFT;\r\n\r\n      newNFT.creationTime = block.timestamp;\r\n      newNFT.verifyHash = keccak256(abi.encode(customer,productId));\r\n      newNFT.expiry =  newNFT.creationTime + expiry;\r\n\r\n      uint256 Id = allSellers[sellerId].id*1000000+allSellers[sellerId].itemCounter;\r\n        sellerWarrantyDetails[sellerId][Id].productId = productId;\r\n      allSellers[sellerId].allNFTs.push(Id);\r\n      sellerWarrantyDetails[sellerId][Id].tokenId = Id;\r\n      sellerWarrantyDetails[sellerId][Id].verifyHash = keccak256(abi.encode(customer,productId));\r\n      sellerWarrantyDetails[sellerId][Id]=newNFT;\r\n      sellerWarrantyDetails[sellerId][Id].buyers.push(customer);\r\n      sellerWarrantyDetails[sellerId][Id].status =  NFTStatus.Pending;\r\n      sellerWarrantyDetails[sellerId][Id].buyersDate.push(newNFT.creationTime);\r\n      allSellers[sellerId].itemCounter++;\r\n      buyersCollection[customer].push(Id);\r\n\r\n      tokenURIList[sellerId][Id]=tokenURI;\r\n        \r\n    }\r\n    function resell(address to,uint256 tokenId,uint256 sellerId)public{\r\n       require( ownerOf(tokenId)==msg.sender,\"Not Owner\");\r\n      sellerWarrantyDetails[sellerId][tokenId].verifyHash = keccak256(abi.encode(to, sellerWarrantyDetails[sellerId][tokenId].productId));\r\n      sellerWarrantyDetails[sellerId][tokenId].buyers.push(to);\r\n      sellerWarrantyDetails[sellerId][tokenId].buyersDate.push(block.timestamp);\r\n\r\n            _transfer(msg.sender,to,tokenId);\r\n    }\r\n\r\n       function burn(uint256 tokenId)external{\r\n        uint256 sellerId = tokenId/1000000;\r\n        require(block.timestamp>=sellerWarrantyDetails[sellerId][tokenId].expiry);\r\n        _burn(tokenId);\r\n        sellerWarrantyDetails[sellerId][tokenId].status =  NFTStatus.Expired;\r\n\r\n    }\r\n\r\n\r\n    //READ Functions\r\n\r\n    \r\n \r\n    function getSellerNFTs(uint256 sellerId) external view returns(uint256[]memory){\r\n        return allSellers[sellerId].allNFTs;\r\n    }\r\n\r\n    function getSellers() external view returns(uint256[]memory){\r\n        return totalSellers;\r\n    }\r\n    function getExpiry (uint256 sellerId,uint256 tokenId)external view returns (uint256 expiry){\r\n        return sellerWarrantyDetails[sellerId][tokenId].expiry;\r\n    }\r\n      function getCreation (uint256 sellerId,uint256 tokenId)external view returns (uint256 creation){\r\n        return sellerWarrantyDetails[sellerId][tokenId].creationTime;\r\n    }\r\n    function getSellerWarrantyDetails(uint256 sellerId,uint256 tokenId)public view returns(warrantyDetails memory){\r\n        return sellerWarrantyDetails[sellerId][tokenId] ;\r\n\r\n    }\r\n    \r\n\r\n\r\n\r\n}\r\n ",
  "sourcePath": "D:\\OpenSource\\BlockChain\\Projects\\nft-warranty-market\\contracts\\NFTWarranty.sol",
  "compiler": {
    "name": "solc",
    "version": "0.8.15+commit.e14f2714.Emscripten.clang"
  },
  "schemaVersion": "3.4.8",
  "updatedAt": "2022-07-29T17:03:16.677Z",
  "networkType": "ethereum",
  "devdoc": {
    "kind": "dev",
    "methods": {
      "approve(address,uint256)": {
        "details": "See {IERC721-approve}."
      },
      "balanceOf(address)": {
        "details": "See {IERC721-balanceOf}."
      },
      "getApproved(uint256)": {
        "details": "See {IERC721-getApproved}."
      },
      "isApprovedForAll(address,address)": {
        "details": "See {IERC721-isApprovedForAll}."
      },
      "name()": {
        "details": "See {IERC721Metadata-name}."
      },
      "ownerOf(uint256)": {
        "details": "See {IERC721-ownerOf}."
      },
      "safeTransferFrom(address,address,uint256)": {
        "details": "See {IERC721-safeTransferFrom}."
      },
      "safeTransferFrom(address,address,uint256,bytes)": {
        "details": "See {IERC721-safeTransferFrom}."
      },
      "setApprovalForAll(address,bool)": {
        "details": "See {IERC721-setApprovalForAll}."
      },
      "supportsInterface(bytes4)": {
        "details": "See {IERC165-supportsInterface}."
      },
      "symbol()": {
        "details": "See {IERC721Metadata-symbol}."
      },
      "tokenURI(uint256)": {
        "details": "See {IERC721Metadata-tokenURI}."
      },
      "transferFrom(address,address,uint256)": {
        "details": "See {IERC721-transferFrom}."
      }
    },
    "version": 1
  },
  "userdoc": {
    "kind": "user",
    "methods": {},
    "version": 1
  }
}