{
  "contractName": "NFTWarranty",
  "abi": [
    {
      "inputs": [],
      "stateMutability": "nonpayable",
      "type": "constructor"
    },
    {
      "anonymous": false,
      "inputs": [
        {
          "indexed": true,
          "internalType": "address",
          "name": "owner",
          "type": "address"
        },
        {
          "indexed": true,
          "internalType": "address",
          "name": "approved",
          "type": "address"
        },
        {
          "indexed": true,
          "internalType": "uint256",
          "name": "tokenId",
          "type": "uint256"
        }
      ],
      "name": "Approval",
      "type": "event"
    },
    {
      "anonymous": false,
      "inputs": [
        {
          "indexed": true,
          "internalType": "address",
          "name": "owner",
          "type": "address"
        },
        {
          "indexed": true,
          "internalType": "address",
          "name": "operator",
          "type": "address"
        },
        {
          "indexed": false,
          "internalType": "bool",
          "name": "approved",
          "type": "bool"
        }
      ],
      "name": "ApprovalForAll",
      "type": "event"
    },
    {
      "anonymous": false,
      "inputs": [
        {
          "indexed": true,
          "internalType": "address",
          "name": "from",
          "type": "address"
        },
        {
          "indexed": true,
          "internalType": "address",
          "name": "to",
          "type": "address"
        },
        {
          "indexed": true,
          "internalType": "uint256",
          "name": "tokenId",
          "type": "uint256"
        }
      ],
      "name": "Transfer",
      "type": "event"
    },
    {
      "inputs": [
        {
          "internalType": "address",
          "name": "",
          "type": "address"
        }
      ],
      "name": "addressToSellerId",
      "outputs": [
        {
          "internalType": "uint256",
          "name": "",
          "type": "uint256"
        }
      ],
      "stateMutability": "view",
      "type": "function",
      "constant": true
    },
    {
      "inputs": [
        {
          "internalType": "uint256",
          "name": "",
          "type": "uint256"
        }
      ],
      "name": "allSellers",
      "outputs": [
        {
          "internalType": "uint256",
          "name": "id",
          "type": "uint256"
        },
        {
          "internalType": "uint256",
          "name": "itemCounter",
          "type": "uint256"
        },
        {
          "internalType": "address",
          "name": "owner",
          "type": "address"
        }
      ],
      "stateMutability": "view",
      "type": "function",
      "constant": true
    },
    {
      "inputs": [
        {
          "internalType": "address",
          "name": "to",
          "type": "address"
        },
        {
          "internalType": "uint256",
          "name": "tokenId",
          "type": "uint256"
        }
      ],
      "name": "approve",
      "outputs": [],
      "stateMutability": "nonpayable",
      "type": "function"
    },
    {
      "inputs": [
        {
          "internalType": "address",
          "name": "owner",
          "type": "address"
        }
      ],
      "name": "balanceOf",
      "outputs": [
        {
          "internalType": "uint256",
          "name": "",
          "type": "uint256"
        }
      ],
      "stateMutability": "view",
      "type": "function",
      "constant": true
    },
    {
      "inputs": [
        {
          "internalType": "address",
          "name": "",
          "type": "address"
        },
        {
          "internalType": "uint256",
          "name": "",
          "type": "uint256"
        }
      ],
      "name": "buyersCollection",
      "outputs": [
        {
          "internalType": "uint256",
          "name": "",
          "type": "uint256"
        }
      ],
      "stateMutability": "view",
      "type": "function",
      "constant": true
    },
    {
      "inputs": [
        {
          "internalType": "uint256",
          "name": "tokenId",
          "type": "uint256"
        }
      ],
      "name": "getApproved",
      "outputs": [
        {
          "internalType": "address",
          "name": "",
          "type": "address"
        }
      ],
      "stateMutability": "view",
      "type": "function",
      "constant": true
    },
    {
      "inputs": [
        {
          "internalType": "address",
          "name": "owner",
          "type": "address"
        },
        {
          "internalType": "address",
          "name": "operator",
          "type": "address"
        }
      ],
      "name": "isApprovedForAll",
      "outputs": [
        {
          "internalType": "bool",
          "name": "",
          "type": "bool"
        }
      ],
      "stateMutability": "view",
      "type": "function",
      "constant": true
    },
    {
      "inputs": [],
      "name": "name",
      "outputs": [
        {
          "internalType": "string",
          "name": "",
          "type": "string"
        }
      ],
      "stateMutability": "view",
      "type": "function",
      "constant": true
    },
    {
      "inputs": [
        {
          "internalType": "uint256",
          "name": "tokenId",
          "type": "uint256"
        }
      ],
      "name": "ownerOf",
      "outputs": [
        {
          "internalType": "address",
          "name": "",
          "type": "address"
        }
      ],
      "stateMutability": "view",
      "type": "function",
      "constant": true
    },
    {
      "inputs": [
        {
          "internalType": "address",
          "name": "from",
          "type": "address"
        },
        {
          "internalType": "address",
          "name": "to",
          "type": "address"
        },
        {
          "internalType": "uint256",
          "name": "tokenId",
          "type": "uint256"
        }
      ],
      "name": "safeTransferFrom",
      "outputs": [],
      "stateMutability": "nonpayable",
      "type": "function"
    },
    {
      "inputs": [
        {
          "internalType": "address",
          "name": "from",
          "type": "address"
        },
        {
          "internalType": "address",
          "name": "to",
          "type": "address"
        },
        {
          "internalType": "uint256",
          "name": "tokenId",
          "type": "uint256"
        },
        {
          "internalType": "bytes",
          "name": "data",
          "type": "bytes"
        }
      ],
      "name": "safeTransferFrom",
      "outputs": [],
      "stateMutability": "nonpayable",
      "type": "function"
    },
    {
      "inputs": [
        {
          "internalType": "uint256",
          "name": "",
          "type": "uint256"
        },
        {
          "internalType": "uint256",
          "name": "",
          "type": "uint256"
        }
      ],
      "name": "sellerWarrantyDetails",
      "outputs": [
        {
          "internalType": "uint256",
          "name": "tokenId",
          "type": "uint256"
        },
        {
          "internalType": "bytes32",
          "name": "verifyHash",
          "type": "bytes32"
        },
        {
          "internalType": "uint256",
          "name": "creationTime",
          "type": "uint256"
        },
        {
          "internalType": "string",
          "name": "productId",
          "type": "string"
        },
        {
          "internalType": "uint256",
          "name": "expiry",
          "type": "uint256"
        },
        {
          "internalType": "enum NFTWarranty.NFTStatus",
          "name": "status",
          "type": "uint8"
        }
      ],
      "stateMutability": "view",
      "type": "function",
      "constant": true
    },
    {
      "inputs": [
        {
          "internalType": "address",
          "name": "operator",
          "type": "address"
        },
        {
          "internalType": "bool",
          "name": "approved",
          "type": "bool"
        }
      ],
      "name": "setApprovalForAll",
      "outputs": [],
      "stateMutability": "nonpayable",
      "type": "function"
    },
    {
      "inputs": [
        {
          "internalType": "bytes4",
          "name": "interfaceId",
          "type": "bytes4"
        }
      ],
      "name": "supportsInterface",
      "outputs": [
        {
          "internalType": "bool",
          "name": "",
          "type": "bool"
        }
      ],
      "stateMutability": "view",
      "type": "function",
      "constant": true
    },
    {
      "inputs": [],
      "name": "symbol",
      "outputs": [
        {
          "internalType": "string",
          "name": "",
          "type": "string"
        }
      ],
      "stateMutability": "view",
      "type": "function",
      "constant": true
    },
    {
      "inputs": [
        {
          "internalType": "uint256",
          "name": "tokenId",
          "type": "uint256"
        }
      ],
      "name": "tokenURI",
      "outputs": [
        {
          "internalType": "string",
          "name": "",
          "type": "string"
        }
      ],
      "stateMutability": "view",
      "type": "function",
      "constant": true
    },
    {
      "inputs": [
        {
          "internalType": "uint256",
          "name": "",
          "type": "uint256"
        },
        {
          "internalType": "uint256",
          "name": "",
          "type": "uint256"
        }
      ],
      "name": "tokenURIList",
      "outputs": [
        {
          "internalType": "string",
          "name": "",
          "type": "string"
        }
      ],
      "stateMutability": "view",
      "type": "function",
      "constant": true
    },
    {
      "inputs": [
        {
          "internalType": "uint256",
          "name": "",
          "type": "uint256"
        }
      ],
      "name": "totalSellers",
      "outputs": [
        {
          "internalType": "uint256",
          "name": "",
          "type": "uint256"
        }
      ],
      "stateMutability": "view",
      "type": "function",
      "constant": true
    },
    {
      "inputs": [
        {
          "internalType": "address",
          "name": "from",
          "type": "address"
        },
        {
          "internalType": "address",
          "name": "to",
          "type": "address"
        },
        {
          "internalType": "uint256",
          "name": "tokenId",
          "type": "uint256"
        }
      ],
      "name": "transferFrom",
      "outputs": [],
      "stateMutability": "nonpayable",
      "type": "function"
    },
    {
      "inputs": [
        {
          "internalType": "string",
          "name": "productId",
          "type": "string"
        },
        {
          "internalType": "uint256",
          "name": "sellerId",
          "type": "uint256"
        },
        {
          "internalType": "uint256",
          "name": "tokenId",
          "type": "uint256"
        }
      ],
      "name": "verifyOwnership",
      "outputs": [
        {
          "internalType": "bool",
          "name": "",
          "type": "bool"
        }
      ],
      "stateMutability": "nonpayable",
      "type": "function"
    },
    {
      "inputs": [
        {
          "internalType": "uint256",
          "name": "sellerId",
          "type": "uint256"
        },
        {
          "internalType": "uint256",
          "name": "tokenId",
          "type": "uint256"
        }
      ],
      "name": "claimNMint",
      "outputs": [],
      "stateMutability": "nonpayable",
      "type": "function"
    },
    {
      "inputs": [
        {
          "internalType": "uint256",
          "name": "sellerId",
          "type": "uint256"
        }
      ],
      "name": "createSeller",
      "outputs": [],
      "stateMutability": "nonpayable",
      "type": "function"
    },
    {
      "inputs": [
        {
          "internalType": "string",
          "name": "tokenURI",
          "type": "string"
        },
        {
          "internalType": "uint256",
          "name": "sellerId",
          "type": "uint256"
        },
        {
          "internalType": "string",
          "name": "productId",
          "type": "string"
        },
        {
          "internalType": "address",
          "name": "customer",
          "type": "address"
        },
        {
          "internalType": "uint256",
          "name": "expiry",
          "type": "uint256"
        }
      ],
      "name": "createNFT",
      "outputs": [],
      "stateMutability": "nonpayable",
      "type": "function"
    },
    {
      "inputs": [
        {
          "internalType": "address",
          "name": "to",
          "type": "address"
        },
        {
          "internalType": "uint256",
          "name": "tokenId",
          "type": "uint256"
        },
        {
          "internalType": "uint256",
          "name": "sellerId",
          "type": "uint256"
        }
      ],
      "name": "resell",
      "outputs": [],
      "stateMutability": "nonpayable",
      "type": "function"
    },
    {
      "inputs": [
        {
          "internalType": "uint256",
          "name": "tokenId",
          "type": "uint256"
        }
      ],
      "name": "burn",
      "outputs": [],
      "stateMutability": "nonpayable",
      "type": "function"
    },
    {
      "inputs": [
        {
          "internalType": "uint256",
          "name": "sellerId",
          "type": "uint256"
        }
      ],
      "name": "getSellerNFTs",
      "outputs": [
        {
          "internalType": "uint256[]",
          "name": "",
          "type": "uint256[]"
        }
      ],
      "stateMutability": "view",
      "type": "function",
      "constant": true
    },
    {
      "inputs": [],
      "name": "getSellers",
      "outputs": [
        {
          "internalType": "uint256[]",
          "name": "",
          "type": "uint256[]"
        }
      ],
      "stateMutability": "view",
      "type": "function",
      "constant": true
    },
    {
      "inputs": [
        {
          "internalType": "uint256",
          "name": "sellerId",
          "type": "uint256"
        },
        {
          "internalType": "uint256",
          "name": "tokenId",
          "type": "uint256"
        }
      ],
      "name": "getExpiry",
      "outputs": [
        {
          "internalType": "uint256",
          "name": "expiry",
          "type": "uint256"
        }
      ],
      "stateMutability": "view",
      "type": "function",
      "constant": true
    },
    {
      "inputs": [
        {
          "internalType": "uint256",
          "name": "sellerId",
          "type": "uint256"
        },
        {
          "internalType": "uint256",
          "name": "tokenId",
          "type": "uint256"
        }
      ],
      "name": "getCreation",
      "outputs": [
        {
          "internalType": "uint256",
          "name": "creation",
          "type": "uint256"
        }
      ],
      "stateMutability": "view",
      "type": "function",
      "constant": true
    }
  ],
  "bytecode": "0x60806040523480156200001157600080fd5b506040518060400160405280600b81526020017f4e465457617272616e74790000000000000000000000000000000000000000008152506040518060400160405280600481526020017f4e4654570000000000000000000000000000000000000000000000000000000081525081600090816200008f919062000324565b508060019081620000a1919062000324565b5050506200040b565b600081519050919050565b7f4e487b7100000000000000000000000000000000000000000000000000000000600052604160045260246000fd5b7f4e487b7100000000000000000000000000000000000000000000000000000000600052602260045260246000fd5b600060028204905060018216806200012c57607f821691505b602082108103620001425762000141620000e4565b5b50919050565b60008190508160005260206000209050919050565b60006020601f8301049050919050565b600082821b905092915050565b600060088302620001ac7fffffffffffffffffffffffffffffffffffffffffffffffffffffffffffffffff826200016d565b620001b886836200016d565b95508019841693508086168417925050509392505050565b6000819050919050565b6000819050919050565b600062000205620001ff620001f984620001d0565b620001da565b620001d0565b9050919050565b6000819050919050565b6200022183620001e4565b6200023962000230826200020c565b8484546200017a565b825550505050565b600090565b6200025062000241565b6200025d81848462000216565b505050565b5b8181101562000285576200027960008262000246565b60018101905062000263565b5050565b601f821115620002d4576200029e8162000148565b620002a9846200015d565b81016020851015620002b9578190505b620002d1620002c8856200015d565b83018262000262565b50505b505050565b600082821c905092915050565b6000620002f960001984600802620002d9565b1980831691505092915050565b6000620003148383620002e6565b9150826002028217905092915050565b6200032f82620000aa565b67ffffffffffffffff8111156200034b576200034a620000b5565b5b62000357825462000113565b6200036482828562000289565b600060209050601f8311600181146200039c576000841562000387578287015190505b62000393858262000306565b86555062000403565b601f198416620003ac8662000148565b60005b82811015620003d657848901518255600182019150602085019450602081019050620003af565b86831015620003f65784890151620003f2601f891682620002e6565b8355505b6001600288020188555050505b505050505050565b61458c806200041b6000396000f3fe608060405234801561001057600080fd5b50600436106101cf5760003560e01c80637fc5a60f11610104578063afbd903a116100a2578063d963729d11610071578063d963729d1461059f578063e985e9c5146105cf578063ed4a4a24146105ff578063f5601e4b14610631576101cf565b8063afbd903a14610507578063b88d4fde14610537578063c839d38c14610553578063c87b56dd1461056f576101cf565b806395d89b41116100de57806395d89b411461047c578063a0cd28081461049a578063a22cb465146104b6578063aa8c7835146104d2576101cf565b80637fc5a60f146103ec5780638721f9fc1461041c5780639567253f1461044c576101cf565b80632d5052d9116101715780636352211e1161014b5780636352211e1461033e57806369ac439b1461036e57806370a082311461039e5780637ee454cb146103ce576101cf565b80632d5052d9146102d657806342842e0e1461030657806342966c6814610322576101cf565b8063095ea7b3116101ad578063095ea7b31461025257806315f7b2e51461026e5780631846f5821461029e57806323b872dd146102ba576101cf565b806301ffc9a7146101d457806306fdde0314610204578063081812fc14610222575b600080fd5b6101ee60048036038101906101e99190612cf6565b61064d565b6040516101fb9190612d3e565b60405180910390f35b61020c61072f565b6040516102199190612df2565b60405180910390f35b61023c60048036038101906102379190612e4a565b6107c1565b6040516102499190612eb8565b60405180910390f35b61026c60048036038101906102679190612eff565b610807565b005b61028860048036038101906102839190613074565b61091e565b6040516102959190612d3e565b60405180910390f35b6102b860048036038101906102b391906130e3565b6109db565b005b6102d460048036038101906102cf9190613123565b610b54565b005b6102f060048036038101906102eb9190612eff565b610bb4565b6040516102fd9190613185565b60405180910390f35b610320600480360381019061031b9190613123565b610be5565b005b61033c60048036038101906103379190612e4a565b610c05565b005b61035860048036038101906103539190612e4a565b610ca9565b6040516103659190612eb8565b60405180910390f35b61038860048036038101906103839190612e4a565b610d5a565b604051610395919061325e565b60405180910390f35b6103b860048036038101906103b39190613280565b610dc8565b6040516103c59190613185565b60405180910390f35b6103d6610e7f565b6040516103e3919061325e565b60405180910390f35b610406600480360381019061040191906130e3565b610ed7565b6040516104139190613185565b60405180910390f35b61043660048036038101906104319190613280565b610f09565b6040516104439190613185565b60405180910390f35b61046660048036038101906104619190612e4a565b610f21565b6040516104739190613185565b60405180910390f35b610484610f45565b6040516104919190612df2565b60405180910390f35b6104b460048036038101906104af91906132ad565b610fd7565b005b6104d060048036038101906104cb919061338c565b6114db565b005b6104ec60048036038101906104e791906130e3565b6114f1565b6040516104fe9695949392919061345c565b60405180910390f35b610521600480360381019061051c91906130e3565b6115cf565b60405161052e9190612df2565b60405180910390f35b610551600480360381019061054c9190613565565b61167c565b005b61056d600480360381019061056891906135e8565b6116de565b005b61058960048036038101906105849190612e4a565b6118b4565b6040516105969190612df2565b60405180910390f35b6105b960048036038101906105b491906130e3565b6119c6565b6040516105c69190613185565b60405180910390f35b6105e960048036038101906105e4919061363b565b6119f8565b6040516105f69190612d3e565b60405180910390f35b61061960048036038101906106149190612e4a565b611a8c565b6040516106289392919061367b565b60405180910390f35b61064b60048036038101906106469190612e4a565b611ad6565b005b60007f80ac58cd000000000000000000000000000000000000000000000000000000007bffffffffffffffffffffffffffffffffffffffffffffffffffffffff1916827bffffffffffffffffffffffffffffffffffffffffffffffffffffffff1916148061071857507f5b5e139f000000000000000000000000000000000000000000000000000000007bffffffffffffffffffffffffffffffffffffffffffffffffffffffff1916827bffffffffffffffffffffffffffffffffffffffffffffffffffffffff1916145b80610728575061072782611cd0565b5b9050919050565b60606000805461073e906136e1565b80601f016020809104026020016040519081016040528092919081815260200182805461076a906136e1565b80156107b75780601f1061078c576101008083540402835291602001916107b7565b820191906000526020600020905b81548152906001019060200180831161079a57829003601f168201915b5050505050905090565b60006107cc82611d3a565b6004600083815260200190815260200160002060009054906101000a900473ffffffffffffffffffffffffffffffffffffffff169050919050565b600061081282610ca9565b90508073ffffffffffffffffffffffffffffffffffffffff168373ffffffffffffffffffffffffffffffffffffffff1603610882576040517f08c379a000000000000000000000000000000000000000000000000000000000815260040161087990613784565b60405180910390fd5b8073ffffffffffffffffffffffffffffffffffffffff166108a1611d85565b73ffffffffffffffffffffffffffffffffffffffff1614806108d057506108cf816108ca611d85565b6119f8565b5b61090f576040517f08c379a000000000000000000000000000000000000000000000000000000000815260040161090690613816565b60405180910390fd5b6109198383611d8d565b505050565b60003384604051602001610933929190613836565b60405160208183030381529060405280519060200120600a6000858152602001908152602001600020600084815260200190815260200160002060010154036109cf576001600a6000858152602001908152602001600020600084815260200190815260200160002060070160006101000a81548160ff021916908360038111156109c1576109c06133e5565b5b0217905550600190506109d4565b600090505b9392505050565b600160038111156109ef576109ee6133e5565b5b600a6000848152602001908152602001600020600083815260200190815260200160002060070160009054906101000a900460ff166003811115610a3657610a356133e5565b5b14610a4057600080fd5b610a4a3382611e46565b610b0081600b600085815260200190815260200160002060008481526020019081526020016000208054610a7d906136e1565b80601f0160208091040260200160405190810160405280929190818152602001828054610aa9906136e1565b8015610af65780601f10610acb57610100808354040283529160200191610af6565b820191906000526020600020905b815481529060010190602001808311610ad957829003601f168201915b505050505061201f565b6002600a6000848152602001908152602001600020600083815260200190815260200160002060070160006101000a81548160ff02191690836003811115610b4b57610b4a6133e5565b5b02179055505050565b610b65610b5f611d85565b8261208c565b610ba4576040517f08c379a0000000000000000000000000000000000000000000000000000000008152600401610b9b906138d8565b60405180910390fd5b610baf838383612121565b505050565b600c6020528160005260406000208181548110610bd057600080fd5b90600052602060002001600091509150505481565b610c008383836040518060200160405280600081525061167c565b505050565b6000620f424082610c169190613956565b9050600a6000828152602001908152602001600020600083815260200190815260200160002060040154421015610c4c57600080fd5b610c5582612387565b6003600a6000838152602001908152602001600020600084815260200190815260200160002060070160006101000a81548160ff02191690836003811115610ca057610c9f6133e5565b5b02179055505050565b6000806002600084815260200190815260200160002060009054906101000a900473ffffffffffffffffffffffffffffffffffffffff169050600073ffffffffffffffffffffffffffffffffffffffff168173ffffffffffffffffffffffffffffffffffffffff1603610d51576040517f08c379a0000000000000000000000000000000000000000000000000000000008152600401610d48906139d3565b60405180910390fd5b80915050919050565b606060096000838152602001908152602001600020600301805480602002602001604051908101604052809291908181526020018280548015610dbc57602002820191906000526020600020905b815481526020019060010190808311610da8575b50505050509050919050565b60008073ffffffffffffffffffffffffffffffffffffffff168273ffffffffffffffffffffffffffffffffffffffff1603610e38576040517f08c379a0000000000000000000000000000000000000000000000000000000008152600401610e2f90613a65565b60405180910390fd5b600360008373ffffffffffffffffffffffffffffffffffffffff1673ffffffffffffffffffffffffffffffffffffffff168152602001908152602001600020549050919050565b60606007805480602002602001604051908101604052809291908181526020018280548015610ecd57602002820191906000526020600020905b815481526020019060010190808311610eb9575b5050505050905090565b6000600a6000848152602001908152602001600020600083815260200190815260200160002060040154905092915050565b60086020528060005260406000206000915090505481565b60078181548110610f3157600080fd5b906000526020600020016000915090505481565b606060018054610f54906136e1565b80601f0160208091040260200160405190810160405280929190818152602001828054610f80906136e1565b8015610fcd5780601f10610fa257610100808354040283529160200191610fcd565b820191906000526020600020905b815481529060010190602001808311610fb057829003601f168201915b5050505050905090565b6009600085815260200190815260200160002060020160009054906101000a900473ffffffffffffffffffffffffffffffffffffffff1673ffffffffffffffffffffffffffffffffffffffff163373ffffffffffffffffffffffffffffffffffffffff161461107b576040517f08c379a000000000000000000000000000000000000000000000000000000000815260040161107290613ad1565b60405180910390fd5b611083612abe565b4281604001818152505082846040516020016110a0929190613836565b604051602081830303815290604052805190602001208160200181815250508181604001516110cf9190613af1565b81608001818152505060006009600087815260200190815260200160002060010154620f424060096000898152602001908152602001600020600001546111169190613b47565b6111209190613af1565b905084600a6000888152602001908152602001600020600083815260200190815260200160002060030190816111569190613d4d565b506009600087815260200190815260200160002060030181908060018154018082558091505060019003906000526020600020016000909190919091505580600a600088815260200190815260200160002060008381526020019081526020016000206000018190555083856040516020016111d3929190613836565b60405160208183030381529060405280519060200120600a600088815260200190815260200160002060008381526020019081526020016000206001018190555081600a60008881526020019081526020016000206000838152602001908152602001600020600082015181600001556020820151816001015560408201518160020155606082015181600301908161126c9190613d4d565b506080820151816004015560a0820151816005019080519060200190611293929190612b18565b5060c08201518160060190805190602001906112b0929190612ba2565b5060e08201518160070160006101000a81548160ff021916908360038111156112dc576112db6133e5565b5b0217905550905050600a60008781526020019081526020016000206000828152602001908152602001600020600501849080600181540180825580915050600190039060005260206000200160009091909190916101000a81548173ffffffffffffffffffffffffffffffffffffffff021916908373ffffffffffffffffffffffffffffffffffffffff1602179055506000600a6000888152602001908152602001600020600083815260200190815260200160002060070160006101000a81548160ff021916908360038111156113b7576113b66133e5565b5b0217905550600a600087815260200190815260200160002060008281526020019081526020016000206006018260400151908060018154018082558091505060019003906000526020600020016000909190919091505560096000878152602001908152602001600020600101600081548092919061143590613e1f565b9190505550600c60008573ffffffffffffffffffffffffffffffffffffffff1673ffffffffffffffffffffffffffffffffffffffff16815260200190815260200160002081908060018154018082558091505060019003906000526020600020016000909190919091505586600b6000888152602001908152602001600020600083815260200190815260200160002090816114d19190613d4d565b5050505050505050565b6114ed6114e6611d85565b83836123da565b5050565b600a60205281600052604060002060205280600052604060002060009150915050806000015490806001015490806002015490806003018054611533906136e1565b80601f016020809104026020016040519081016040528092919081815260200182805461155f906136e1565b80156115ac5780601f10611581576101008083540402835291602001916115ac565b820191906000526020600020905b81548152906001019060200180831161158f57829003601f168201915b5050505050908060040154908060070160009054906101000a900460ff16905086565b600b6020528160005260406000206020528060005260406000206000915091505080546115fb906136e1565b80601f0160208091040260200160405190810160405280929190818152602001828054611627906136e1565b80156116745780601f1061164957610100808354040283529160200191611674565b820191906000526020600020905b81548152906001019060200180831161165757829003601f168201915b505050505081565b61168d611687611d85565b8361208c565b6116cc576040517f08c379a00000000000000000000000000000000000000000000000000000000081526004016116c3906138d8565b60405180910390fd5b6116d884848484612546565b50505050565b3373ffffffffffffffffffffffffffffffffffffffff166116fe83610ca9565b73ffffffffffffffffffffffffffffffffffffffff1614611754576040517f08c379a000000000000000000000000000000000000000000000000000000000815260040161174b90613eb3565b60405180910390fd5b82600a6000838152602001908152602001600020600084815260200190815260200160002060030160405160200161178d929190613f57565b60405160208183030381529060405280519060200120600a6000838152602001908152602001600020600084815260200190815260200160002060010181905550600a60008281526020019081526020016000206000838152602001908152602001600020600501839080600181540180825580915050600190039060005260206000200160009091909190916101000a81548173ffffffffffffffffffffffffffffffffffffffff021916908373ffffffffffffffffffffffffffffffffffffffff160217905550600a600082815260200190815260200160002060008381526020019081526020016000206006014290806001815401808255809150506001900390600052602060002001600090919091909150556118af338484612121565b505050565b60606118bf82611d3a565b60006006600084815260200190815260200160002080546118df906136e1565b80601f016020809104026020016040519081016040528092919081815260200182805461190b906136e1565b80156119585780601f1061192d57610100808354040283529160200191611958565b820191906000526020600020905b81548152906001019060200180831161193b57829003601f168201915b5050505050905060006119696125a2565b9050600081510361197e5781925050506119c1565b6000825111156119b357808260405160200161199b929190613fc3565b604051602081830303815290604052925050506119c1565b6119bc846125b9565b925050505b919050565b6000600a6000848152602001908152602001600020600083815260200190815260200160002060020154905092915050565b6000600560008473ffffffffffffffffffffffffffffffffffffffff1673ffffffffffffffffffffffffffffffffffffffff16815260200190815260200160002060008373ffffffffffffffffffffffffffffffffffffffff1673ffffffffffffffffffffffffffffffffffffffff16815260200190815260200160002060009054906101000a900460ff16905092915050565b60096020528060005260406000206000915090508060000154908060010154908060020160009054906101000a900473ffffffffffffffffffffffffffffffffffffffff16905083565b600073ffffffffffffffffffffffffffffffffffffffff166009600083815260200190815260200160002060020160009054906101000a900473ffffffffffffffffffffffffffffffffffffffff1673ffffffffffffffffffffffffffffffffffffffff1614611b7b576040517f08c379a0000000000000000000000000000000000000000000000000000000008152600401611b7290614033565b60405180910390fd5b611b83612bef565b8181600001818152505033816040019073ffffffffffffffffffffffffffffffffffffffff16908173ffffffffffffffffffffffffffffffffffffffff168152505060008160200181815250508060096000848152602001908152602001600020600082015181600001556020820151816001015560408201518160020160006101000a81548173ffffffffffffffffffffffffffffffffffffffff021916908373ffffffffffffffffffffffffffffffffffffffff1602179055506060820151816003019080519060200190611c5b929190612ba2565b50905050600782908060018154018082558091505060019003906000526020600020016000909190919091505581600860003373ffffffffffffffffffffffffffffffffffffffff1673ffffffffffffffffffffffffffffffffffffffff168152602001908152602001600020819055505050565b60007f01ffc9a7000000000000000000000000000000000000000000000000000000007bffffffffffffffffffffffffffffffffffffffffffffffffffffffff1916827bffffffffffffffffffffffffffffffffffffffffffffffffffffffff1916149050919050565b611d4381612621565b611d82576040517f08c379a0000000000000000000000000000000000000000000000000000000008152600401611d79906139d3565b60405180910390fd5b50565b600033905090565b816004600083815260200190815260200160002060006101000a81548173ffffffffffffffffffffffffffffffffffffffff021916908373ffffffffffffffffffffffffffffffffffffffff160217905550808273ffffffffffffffffffffffffffffffffffffffff16611e0083610ca9565b73ffffffffffffffffffffffffffffffffffffffff167f8c5be1e5ebec7d5bd14f71427d1e84f3dd0314c0f7b2291e5b200ac8c7c3b92560405160405180910390a45050565b600073ffffffffffffffffffffffffffffffffffffffff168273ffffffffffffffffffffffffffffffffffffffff1603611eb5576040517f08c379a0000000000000000000000000000000000000000000000000000000008152600401611eac9061409f565b60405180910390fd5b611ebe81612621565b15611efe576040517f08c379a0000000000000000000000000000000000000000000000000000000008152600401611ef59061410b565b60405180910390fd5b611f0a6000838361268d565b6001600360008473ffffffffffffffffffffffffffffffffffffffff1673ffffffffffffffffffffffffffffffffffffffff1681526020019081526020016000206000828254611f5a9190613af1565b92505081905550816002600083815260200190815260200160002060006101000a81548173ffffffffffffffffffffffffffffffffffffffff021916908373ffffffffffffffffffffffffffffffffffffffff160217905550808273ffffffffffffffffffffffffffffffffffffffff16600073ffffffffffffffffffffffffffffffffffffffff167fddf252ad1be2c89b69c2b068fc378daa952ba7f163c4a11628f55a4df523b3ef60405160405180910390a461201b60008383612692565b5050565b61202882612621565b612067576040517f08c379a000000000000000000000000000000000000000000000000000000000815260040161205e9061419d565b60405180910390fd5b806006600084815260200190815260200160002090816120879190613d4d565b505050565b60008061209883610ca9565b90508073ffffffffffffffffffffffffffffffffffffffff168473ffffffffffffffffffffffffffffffffffffffff1614806120da57506120d981856119f8565b5b8061211857508373ffffffffffffffffffffffffffffffffffffffff16612100846107c1565b73ffffffffffffffffffffffffffffffffffffffff16145b91505092915050565b8273ffffffffffffffffffffffffffffffffffffffff1661214182610ca9565b73ffffffffffffffffffffffffffffffffffffffff1614612197576040517f08c379a000000000000000000000000000000000000000000000000000000000815260040161218e9061422f565b60405180910390fd5b600073ffffffffffffffffffffffffffffffffffffffff168273ffffffffffffffffffffffffffffffffffffffff1603612206576040517f08c379a00000000000000000000000000000000000000000000000000000000081526004016121fd906142c1565b60405180910390fd5b61221183838361268d565b61221c600082611d8d565b6001600360008573ffffffffffffffffffffffffffffffffffffffff1673ffffffffffffffffffffffffffffffffffffffff168152602001908152602001600020600082825461226c91906142e1565b925050819055506001600360008473ffffffffffffffffffffffffffffffffffffffff1673ffffffffffffffffffffffffffffffffffffffff16815260200190815260200160002060008282546122c39190613af1565b92505081905550816002600083815260200190815260200160002060006101000a81548173ffffffffffffffffffffffffffffffffffffffff021916908373ffffffffffffffffffffffffffffffffffffffff160217905550808273ffffffffffffffffffffffffffffffffffffffff168473ffffffffffffffffffffffffffffffffffffffff167fddf252ad1be2c89b69c2b068fc378daa952ba7f163c4a11628f55a4df523b3ef60405160405180910390a4612382838383612692565b505050565b61239081612697565b60006006600083815260200190815260200160002080546123b0906136e1565b9050146123d7576006600082815260200190815260200160002060006123d69190612c2d565b5b50565b8173ffffffffffffffffffffffffffffffffffffffff168373ffffffffffffffffffffffffffffffffffffffff1603612448576040517f08c379a000000000000000000000000000000000000000000000000000000000815260040161243f90614361565b60405180910390fd5b80600560008573ffffffffffffffffffffffffffffffffffffffff1673ffffffffffffffffffffffffffffffffffffffff16815260200190815260200160002060008473ffffffffffffffffffffffffffffffffffffffff1673ffffffffffffffffffffffffffffffffffffffff16815260200190815260200160002060006101000a81548160ff0219169083151502179055508173ffffffffffffffffffffffffffffffffffffffff168373ffffffffffffffffffffffffffffffffffffffff167f17307eab39ab6107e8899845ad3d59bd9653f200f220920489ca2b5937696c31836040516125399190612d3e565b60405180910390a3505050565b612551848484612121565b61255d848484846127b4565b61259c576040517f08c379a0000000000000000000000000000000000000000000000000000000008152600401612593906143f3565b60405180910390fd5b50505050565b606060405180602001604052806000815250905090565b60606125c482611d3a565b60006125ce6125a2565b905060008151116125ee5760405180602001604052806000815250612619565b806125f88461293b565b604051602001612609929190613fc3565b6040516020818303038152906040525b915050919050565b60008073ffffffffffffffffffffffffffffffffffffffff166002600084815260200190815260200160002060009054906101000a900473ffffffffffffffffffffffffffffffffffffffff1673ffffffffffffffffffffffffffffffffffffffff1614159050919050565b505050565b505050565b60006126a282610ca9565b90506126b08160008461268d565b6126bb600083611d8d565b6001600360008373ffffffffffffffffffffffffffffffffffffffff1673ffffffffffffffffffffffffffffffffffffffff168152602001908152602001600020600082825461270b91906142e1565b925050819055506002600083815260200190815260200160002060006101000a81549073ffffffffffffffffffffffffffffffffffffffff021916905581600073ffffffffffffffffffffffffffffffffffffffff168273ffffffffffffffffffffffffffffffffffffffff167fddf252ad1be2c89b69c2b068fc378daa952ba7f163c4a11628f55a4df523b3ef60405160405180910390a46127b081600084612692565b5050565b60006127d58473ffffffffffffffffffffffffffffffffffffffff16612a9b565b1561292e578373ffffffffffffffffffffffffffffffffffffffff1663150b7a026127fe611d85565b8786866040518563ffffffff1660e01b81526004016128209493929190614468565b6020604051808303816000875af192505050801561285c57506040513d601f19601f8201168201806040525081019061285991906144c9565b60015b6128de573d806000811461288c576040519150601f19603f3d011682016040523d82523d6000602084013e612891565b606091505b5060008151036128d6576040517f08c379a00000000000000000000000000000000000000000000000000000000081526004016128cd906143f3565b60405180910390fd5b805181602001fd5b63150b7a0260e01b7bffffffffffffffffffffffffffffffffffffffffffffffffffffffff1916817bffffffffffffffffffffffffffffffffffffffffffffffffffffffff191614915050612933565b600190505b949350505050565b606060008203612982576040518060400160405280600181526020017f30000000000000000000000000000000000000000000000000000000000000008152509050612a96565b600082905060005b600082146129b457808061299d90613e1f565b915050600a826129ad9190613956565b915061298a565b60008167ffffffffffffffff8111156129d0576129cf612f49565b5b6040519080825280601f01601f191660200182016040528015612a025781602001600182028036833780820191505090505b5090505b60008514612a8f57600182612a1b91906142e1565b9150600a85612a2a91906144f6565b6030612a369190613af1565b60f81b818381518110612a4c57612a4b614527565b5b60200101907effffffffffffffffffffffffffffffffffffffffffffffffffffffffffffff1916908160001a905350600a85612a889190613956565b9450612a06565b8093505050505b919050565b6000808273ffffffffffffffffffffffffffffffffffffffff163b119050919050565b6040518061010001604052806000815260200160008019168152602001600081526020016060815260200160008152602001606081526020016060815260200160006003811115612b1257612b116133e5565b5b81525090565b828054828255906000526020600020908101928215612b91579160200282015b82811115612b905782518260006101000a81548173ffffffffffffffffffffffffffffffffffffffff021916908373ffffffffffffffffffffffffffffffffffffffff16021790555091602001919060010190612b38565b5b509050612b9e9190612c6d565b5090565b828054828255906000526020600020908101928215612bde579160200282015b82811115612bdd578251825591602001919060010190612bc2565b5b509050612beb9190612c6d565b5090565b60405180608001604052806000815260200160008152602001600073ffffffffffffffffffffffffffffffffffffffff168152602001606081525090565b508054612c39906136e1565b6000825580601f10612c4b5750612c6a565b601f016020900490600052602060002090810190612c699190612c6d565b5b50565b5b80821115612c86576000816000905550600101612c6e565b5090565b6000604051905090565b600080fd5b600080fd5b60007fffffffff0000000000000000000000000000000000000000000000000000000082169050919050565b612cd381612c9e565b8114612cde57600080fd5b50565b600081359050612cf081612cca565b92915050565b600060208284031215612d0c57612d0b612c94565b5b6000612d1a84828501612ce1565b91505092915050565b60008115159050919050565b612d3881612d23565b82525050565b6000602082019050612d536000830184612d2f565b92915050565b600081519050919050565b600082825260208201905092915050565b60005b83811015612d93578082015181840152602081019050612d78565b83811115612da2576000848401525b50505050565b6000601f19601f8301169050919050565b6000612dc482612d59565b612dce8185612d64565b9350612dde818560208601612d75565b612de781612da8565b840191505092915050565b60006020820190508181036000830152612e0c8184612db9565b905092915050565b6000819050919050565b612e2781612e14565b8114612e3257600080fd5b50565b600081359050612e4481612e1e565b92915050565b600060208284031215612e6057612e5f612c94565b5b6000612e6e84828501612e35565b91505092915050565b600073ffffffffffffffffffffffffffffffffffffffff82169050919050565b6000612ea282612e77565b9050919050565b612eb281612e97565b82525050565b6000602082019050612ecd6000830184612ea9565b92915050565b612edc81612e97565b8114612ee757600080fd5b50565b600081359050612ef981612ed3565b92915050565b60008060408385031215612f1657612f15612c94565b5b6000612f2485828601612eea565b9250506020612f3585828601612e35565b9150509250929050565b600080fd5b600080fd5b7f4e487b7100000000000000000000000000000000000000000000000000000000600052604160045260246000fd5b612f8182612da8565b810181811067ffffffffffffffff82111715612fa057612f9f612f49565b5b80604052505050565b6000612fb3612c8a565b9050612fbf8282612f78565b919050565b600067ffffffffffffffff821115612fdf57612fde612f49565b5b612fe882612da8565b9050602081019050919050565b82818337600083830152505050565b600061301761301284612fc4565b612fa9565b90508281526020810184848401111561303357613032612f44565b5b61303e848285612ff5565b509392505050565b600082601f83011261305b5761305a612f3f565b5b813561306b848260208601613004565b91505092915050565b60008060006060848603121561308d5761308c612c94565b5b600084013567ffffffffffffffff8111156130ab576130aa612c99565b5b6130b786828701613046565b93505060206130c886828701612e35565b92505060406130d986828701612e35565b9150509250925092565b600080604083850312156130fa576130f9612c94565b5b600061310885828601612e35565b925050602061311985828601612e35565b9150509250929050565b60008060006060848603121561313c5761313b612c94565b5b600061314a86828701612eea565b935050602061315b86828701612eea565b925050604061316c86828701612e35565b9150509250925092565b61317f81612e14565b82525050565b600060208201905061319a6000830184613176565b92915050565b600081519050919050565b600082825260208201905092915050565b6000819050602082019050919050565b6131d581612e14565b82525050565b60006131e783836131cc565b60208301905092915050565b6000602082019050919050565b600061320b826131a0565b61321581856131ab565b9350613220836131bc565b8060005b8381101561325157815161323888826131db565b9750613243836131f3565b925050600181019050613224565b5085935050505092915050565b600060208201905081810360008301526132788184613200565b905092915050565b60006020828403121561329657613295612c94565b5b60006132a484828501612eea565b91505092915050565b600080600080600060a086880312156132c9576132c8612c94565b5b600086013567ffffffffffffffff8111156132e7576132e6612c99565b5b6132f388828901613046565b955050602061330488828901612e35565b945050604086013567ffffffffffffffff81111561332557613324612c99565b5b61333188828901613046565b935050606061334288828901612eea565b925050608061335388828901612e35565b9150509295509295909350565b61336981612d23565b811461337457600080fd5b50565b60008135905061338681613360565b92915050565b600080604083850312156133a3576133a2612c94565b5b60006133b185828601612eea565b92505060206133c285828601613377565b9150509250929050565b6000819050919050565b6133df816133cc565b82525050565b7f4e487b7100000000000000000000000000000000000000000000000000000000600052602160045260246000fd5b60048110613425576134246133e5565b5b50565b600081905061343682613414565b919050565b600061344682613428565b9050919050565b6134568161343b565b82525050565b600060c0820190506134716000830189613176565b61347e60208301886133d6565b61348b6040830187613176565b818103606083015261349d8186612db9565b90506134ac6080830185613176565b6134b960a083018461344d565b979650505050505050565b600067ffffffffffffffff8211156134df576134de612f49565b5b6134e882612da8565b9050602081019050919050565b6000613508613503846134c4565b612fa9565b90508281526020810184848401111561352457613523612f44565b5b61352f848285612ff5565b509392505050565b600082601f83011261354c5761354b612f3f565b5b813561355c8482602086016134f5565b91505092915050565b6000806000806080858703121561357f5761357e612c94565b5b600061358d87828801612eea565b945050602061359e87828801612eea565b93505060406135af87828801612e35565b925050606085013567ffffffffffffffff8111156135d0576135cf612c99565b5b6135dc87828801613537565b91505092959194509250565b60008060006060848603121561360157613600612c94565b5b600061360f86828701612eea565b935050602061362086828701612e35565b925050604061363186828701612e35565b9150509250925092565b6000806040838503121561365257613651612c94565b5b600061366085828601612eea565b925050602061367185828601612eea565b9150509250929050565b60006060820190506136906000830186613176565b61369d6020830185613176565b6136aa6040830184612ea9565b949350505050565b7f4e487b7100000000000000000000000000000000000000000000000000000000600052602260045260246000fd5b600060028204905060018216806136f957607f821691505b60208210810361370c5761370b6136b2565b5b50919050565b7f4552433732313a20617070726f76616c20746f2063757272656e74206f776e6560008201527f7200000000000000000000000000000000000000000000000000000000000000602082015250565b600061376e602183612d64565b915061377982613712565b604082019050919050565b6000602082019050818103600083015261379d81613761565b9050919050565b7f4552433732313a20617070726f76652063616c6c6572206973206e6f7420746f60008201527f6b656e206f776e6572206e6f7220617070726f76656420666f7220616c6c0000602082015250565b6000613800603e83612d64565b915061380b826137a4565b604082019050919050565b6000602082019050818103600083015261382f816137f3565b9050919050565b600060408201905061384b6000830185612ea9565b818103602083015261385d8184612db9565b90509392505050565b7f4552433732313a2063616c6c6572206973206e6f7420746f6b656e206f776e6560008201527f72206e6f7220617070726f766564000000000000000000000000000000000000602082015250565b60006138c2602e83612d64565b91506138cd82613866565b604082019050919050565b600060208201905081810360008301526138f1816138b5565b9050919050565b7f4e487b7100000000000000000000000000000000000000000000000000000000600052601260045260246000fd5b7f4e487b7100000000000000000000000000000000000000000000000000000000600052601160045260246000fd5b600061396182612e14565b915061396c83612e14565b92508261397c5761397b6138f8565b5b828204905092915050565b7f4552433732313a20696e76616c696420746f6b656e2049440000000000000000600082015250565b60006139bd601883612d64565b91506139c882613987565b602082019050919050565b600060208201905081810360008301526139ec816139b0565b9050919050565b7f4552433732313a2061646472657373207a65726f206973206e6f74206120766160008201527f6c6964206f776e65720000000000000000000000000000000000000000000000602082015250565b6000613a4f602983612d64565b9150613a5a826139f3565b604082019050919050565b60006020820190508181036000830152613a7e81613a42565b9050919050565b7f4d757374206265206f776e657200000000000000000000000000000000000000600082015250565b6000613abb600d83612d64565b9150613ac682613a85565b602082019050919050565b60006020820190508181036000830152613aea81613aae565b9050919050565b6000613afc82612e14565b9150613b0783612e14565b9250827fffffffffffffffffffffffffffffffffffffffffffffffffffffffffffffffff03821115613b3c57613b3b613927565b5b828201905092915050565b6000613b5282612e14565b9150613b5d83612e14565b9250817fffffffffffffffffffffffffffffffffffffffffffffffffffffffffffffffff0483118215151615613b9657613b95613927565b5b828202905092915050565b60008190508160005260206000209050919050565b60006020601f8301049050919050565b600082821b905092915050565b600060088302613c037fffffffffffffffffffffffffffffffffffffffffffffffffffffffffffffffff82613bc6565b613c0d8683613bc6565b95508019841693508086168417925050509392505050565b6000819050919050565b6000613c4a613c45613c4084612e14565b613c25565b612e14565b9050919050565b6000819050919050565b613c6483613c2f565b613c78613c7082613c51565b848454613bd3565b825550505050565b600090565b613c8d613c80565b613c98818484613c5b565b505050565b5b81811015613cbc57613cb1600082613c85565b600181019050613c9e565b5050565b601f821115613d0157613cd281613ba1565b613cdb84613bb6565b81016020851015613cea578190505b613cfe613cf685613bb6565b830182613c9d565b50505b505050565b600082821c905092915050565b6000613d2460001984600802613d06565b1980831691505092915050565b6000613d3d8383613d13565b9150826002028217905092915050565b613d5682612d59565b67ffffffffffffffff811115613d6f57613d6e612f49565b5b613d7982546136e1565b613d84828285613cc0565b600060209050601f831160018114613db75760008415613da5578287015190505b613daf8582613d31565b865550613e17565b601f198416613dc586613ba1565b60005b82811015613ded57848901518255600182019150602085019450602081019050613dc8565b86831015613e0a5784890151613e06601f891682613d13565b8355505b6001600288020188555050505b505050505050565b6000613e2a82612e14565b91507fffffffffffffffffffffffffffffffffffffffffffffffffffffffffffffffff8203613e5c57613e5b613927565b5b600182019050919050565b7f4e6f74204f776e65720000000000000000000000000000000000000000000000600082015250565b6000613e9d600983612d64565b9150613ea882613e67565b602082019050919050565b60006020820190508181036000830152613ecc81613e90565b9050919050565b60008154613ee0816136e1565b613eea8186612d64565b94506001821660008114613f055760018114613f1b57613f4e565b60ff198316865281151560200286019350613f4e565b613f2485613ba1565b60005b83811015613f4657815481890152600182019150602081019050613f27565b808801955050505b50505092915050565b6000604082019050613f6c6000830185612ea9565b8181036020830152613f7e8184613ed3565b90509392505050565b600081905092915050565b6000613f9d82612d59565b613fa78185613f87565b9350613fb7818560208601612d75565b80840191505092915050565b6000613fcf8285613f92565b9150613fdb8284613f92565b91508190509392505050565b7f53656c6c657220416c7265616479206578697374000000000000000000000000600082015250565b600061401d601483612d64565b915061402882613fe7565b602082019050919050565b6000602082019050818103600083015261404c81614010565b9050919050565b7f4552433732313a206d696e7420746f20746865207a65726f2061646472657373600082015250565b6000614089602083612d64565b915061409482614053565b602082019050919050565b600060208201905081810360008301526140b88161407c565b9050919050565b7f4552433732313a20746f6b656e20616c7265616479206d696e74656400000000600082015250565b60006140f5601c83612d64565b9150614100826140bf565b602082019050919050565b60006020820190508181036000830152614124816140e8565b9050919050565b7f45524337323155524953746f726167653a2055524920736574206f66206e6f6e60008201527f6578697374656e7420746f6b656e000000000000000000000000000000000000602082015250565b6000614187602e83612d64565b91506141928261412b565b604082019050919050565b600060208201905081810360008301526141b68161417a565b9050919050565b7f4552433732313a207472616e736665722066726f6d20696e636f72726563742060008201527f6f776e6572000000000000000000000000000000000000000000000000000000602082015250565b6000614219602583612d64565b9150614224826141bd565b604082019050919050565b600060208201905081810360008301526142488161420c565b9050919050565b7f4552433732313a207472616e7366657220746f20746865207a65726f2061646460008201527f7265737300000000000000000000000000000000000000000000000000000000602082015250565b60006142ab602483612d64565b91506142b68261424f565b604082019050919050565b600060208201905081810360008301526142da8161429e565b9050919050565b60006142ec82612e14565b91506142f783612e14565b92508282101561430a57614309613927565b5b828203905092915050565b7f4552433732313a20617070726f766520746f2063616c6c657200000000000000600082015250565b600061434b601983612d64565b915061435682614315565b602082019050919050565b6000602082019050818103600083015261437a8161433e565b9050919050565b7f4552433732313a207472616e7366657220746f206e6f6e20455243373231526560008201527f63656976657220696d706c656d656e7465720000000000000000000000000000602082015250565b60006143dd603283612d64565b91506143e882614381565b604082019050919050565b6000602082019050818103600083015261440c816143d0565b9050919050565b600081519050919050565b600082825260208201905092915050565b600061443a82614413565b614444818561441e565b9350614454818560208601612d75565b61445d81612da8565b840191505092915050565b600060808201905061447d6000830187612ea9565b61448a6020830186612ea9565b6144976040830185613176565b81810360608301526144a9818461442f565b905095945050505050565b6000815190506144c381612cca565b92915050565b6000602082840312156144df576144de612c94565b5b60006144ed848285016144b4565b91505092915050565b600061450182612e14565b915061450c83612e14565b92508261451c5761451b6138f8565b5b828206905092915050565b7f4e487b7100000000000000000000000000000000000000000000000000000000600052603260045260246000fdfea2646970667358221220215edf74aaedd9e6eae3a2de67bc1ba1fe6402007dd0e414b35a69a4e0afc2ca64736f6c634300080f0033",
  "immutableReferences": {},
  "source": "// SPDX-License-Identifier: GPL-3.0\r\npragma solidity ^0.8.7;\r\n\r\nimport \"@openzeppelin/contracts/token/ERC721/extensions/ERC721URIStorage.sol\";\r\nimport \"@openzeppelin/contracts/utils/Counters.sol\";\r\n\r\ncontract NFTWarranty is ERC721URIStorage {\r\n    //using Counters for Counters.Counter;\r\n    //Counters.Counter private _tokenIds;\r\n\r\n        constructor() ERC721(\"NFTWarranty\", \"NFTW\") {}\r\n\r\n     struct seller{\r\n        uint256 id;\r\n        uint256 itemCounter;\r\n        address owner;\r\n        uint256 [] allNFTs;\r\n        //string tokenURI;\r\n     \r\n    }\r\n     struct warrantyDetails{\r\n        uint256 tokenId;\r\n        bytes32 verifyHash;\r\n        uint256 creationTime;\r\n        string  productId;\r\n        uint256 expiry;\r\n        address[]buyers;\r\n        uint256[]buyersDate;\r\n        NFTStatus status;\r\n    }\r\n    //verify ownership\r\n    enum NFTStatus{\r\n        Pending,\r\n        Verified,\r\n        Active,\r\n        Expired\r\n    }\r\n    \r\n    uint256 [] public totalSellers;\r\n    mapping (address=>uint256) public addressToSellerId;\r\n    mapping(uint256=>seller) public allSellers;\r\n    mapping(uint256=>mapping(uint256=>warrantyDetails)) public sellerWarrantyDetails;\r\n    mapping(uint256=>mapping(uint256=>string)) public tokenURIList;\r\n    mapping (address=>uint256[]) public buyersCollection;\r\n\r\n    function verifyOwnership(string memory productId,uint256 sellerId,uint256 tokenId)public returns(bool){\r\n        //require(sellerWarrantyDetails[sellerId][tokenId].verifyHash!=bytes32(0x0),\"Item doesn't Exist\");\r\n        \r\n        if(sellerWarrantyDetails[sellerId][tokenId].verifyHash==keccak256(abi.encode(msg.sender,productId))){\r\n            sellerWarrantyDetails[sellerId][tokenId].status = NFTStatus.Verified;\r\n            return true;\r\n            \r\n        }\r\n        else return false;\r\n    }\r\n    function claimNMint(uint256 sellerId,uint256 tokenId)public {\r\n        require(sellerWarrantyDetails[sellerId][tokenId].status == NFTStatus.Verified);\r\n        _mint(msg.sender,tokenId);\r\n        _setTokenURI(tokenId,tokenURIList[sellerId][tokenId]); \r\n        sellerWarrantyDetails[sellerId][tokenId].status =  NFTStatus.Active;\r\n \r\n\r\n    }\r\n    function createSeller(uint256 sellerId) public{\r\n        require(allSellers[sellerId].owner==address(0x0),\"Seller Already exist\");\r\n         seller memory newSeller;\r\n         newSeller.id = sellerId;\r\n         newSeller.owner = msg.sender;\r\n         newSeller.itemCounter = 0;\r\n         allSellers[sellerId] = newSeller;\r\n         totalSellers.push(sellerId);\r\n         addressToSellerId[msg.sender] = sellerId;\r\n\r\n    }\r\n    function createNFT(string memory tokenURI,uint256 sellerId,string memory productId,address customer,uint256 expiry)public{\r\n      //require(tokenURIList[sellerId][allSellers[sellerId].itemCounter].length==0,\"\");\r\n\r\n      require(msg.sender== allSellers[sellerId].owner,\"Must be owner\");\r\n      warrantyDetails memory newNFT;\r\n\r\n      newNFT.creationTime = block.timestamp;\r\n      newNFT.verifyHash = keccak256(abi.encode(customer,productId));\r\n      newNFT.expiry =  newNFT.creationTime + expiry;\r\n\r\n      uint256 Id = allSellers[sellerId].id*1000000+allSellers[sellerId].itemCounter;\r\n        sellerWarrantyDetails[sellerId][Id].productId = productId;\r\n      allSellers[sellerId].allNFTs.push(Id);\r\n      sellerWarrantyDetails[sellerId][Id].tokenId = Id;\r\n      sellerWarrantyDetails[sellerId][Id].verifyHash = keccak256(abi.encode(customer,productId));\r\n      sellerWarrantyDetails[sellerId][Id]=newNFT;\r\n      sellerWarrantyDetails[sellerId][Id].buyers.push(customer);\r\n      sellerWarrantyDetails[sellerId][Id].status =  NFTStatus.Pending;\r\n      sellerWarrantyDetails[sellerId][Id].buyersDate.push(newNFT.creationTime);\r\n      allSellers[sellerId].itemCounter++;\r\n      buyersCollection[customer].push(Id);\r\n\r\n      tokenURIList[sellerId][Id]=tokenURI;\r\n        \r\n    }\r\n    function resell(address to,uint256 tokenId,uint256 sellerId)public{\r\n       require( ownerOf(tokenId)==msg.sender,\"Not Owner\");\r\n      sellerWarrantyDetails[sellerId][tokenId].verifyHash = keccak256(abi.encode(to, sellerWarrantyDetails[sellerId][tokenId].productId));\r\n      sellerWarrantyDetails[sellerId][tokenId].buyers.push(to);\r\n      sellerWarrantyDetails[sellerId][tokenId].buyersDate.push(block.timestamp);\r\n\r\n            _transfer(msg.sender,to,tokenId);\r\n    }\r\n\r\n       function burn(uint256 tokenId)external{\r\n        uint256 sellerId = tokenId/1000000;\r\n        require(block.timestamp>=sellerWarrantyDetails[sellerId][tokenId].expiry);\r\n        _burn(tokenId);\r\n        sellerWarrantyDetails[sellerId][tokenId].status =  NFTStatus.Expired;\r\n\r\n    }\r\n\r\n\r\n    //READ Functions\r\n\r\n    \r\n \r\n    function getSellerNFTs(uint256 sellerId) external view returns(uint256[]memory){\r\n        return allSellers[sellerId].allNFTs;\r\n    }\r\n\r\n    function getSellers() external view returns(uint256[]memory){\r\n        return totalSellers;\r\n    }\r\n    function getExpiry (uint256 sellerId,uint256 tokenId)external view returns (uint256 expiry){\r\n        return sellerWarrantyDetails[sellerId][tokenId].expiry;\r\n    }\r\n      function getCreation (uint256 sellerId,uint256 tokenId)external view returns (uint256 creation){\r\n        return sellerWarrantyDetails[sellerId][tokenId].creationTime;\r\n    }\r\n    \r\n\r\n\r\n\r\n}\r\n ",
  "sourcePath": "D:\\OpenSource\\BlockChain\\Projects\\nft-warranty-market\\contracts\\NFTWarranty.sol",
  "compiler": {
    "name": "solc",
    "version": "0.8.15+commit.e14f2714.Emscripten.clang"
  },
  "schemaVersion": "3.4.8",
  "updatedAt": "2022-07-28T11:58:12.339Z",
  "networkType": "ethereum",
  "devdoc": {
    "kind": "dev",
    "methods": {
      "approve(address,uint256)": {
        "details": "See {IERC721-approve}."
      },
      "balanceOf(address)": {
        "details": "See {IERC721-balanceOf}."
      },
      "getApproved(uint256)": {
        "details": "See {IERC721-getApproved}."
      },
      "isApprovedForAll(address,address)": {
        "details": "See {IERC721-isApprovedForAll}."
      },
      "name()": {
        "details": "See {IERC721Metadata-name}."
      },
      "ownerOf(uint256)": {
        "details": "See {IERC721-ownerOf}."
      },
      "safeTransferFrom(address,address,uint256)": {
        "details": "See {IERC721-safeTransferFrom}."
      },
      "safeTransferFrom(address,address,uint256,bytes)": {
        "details": "See {IERC721-safeTransferFrom}."
      },
      "setApprovalForAll(address,bool)": {
        "details": "See {IERC721-setApprovalForAll}."
      },
      "supportsInterface(bytes4)": {
        "details": "See {IERC165-supportsInterface}."
      },
      "symbol()": {
        "details": "See {IERC721Metadata-symbol}."
      },
      "tokenURI(uint256)": {
        "details": "See {IERC721Metadata-tokenURI}."
      },
      "transferFrom(address,address,uint256)": {
        "details": "See {IERC721-transferFrom}."
      }
    },
    "version": 1
  },
  "userdoc": {
    "kind": "user",
    "methods": {},
    "version": 1
  }
}