{
  "contractName": "NFTWarranty",
  "abi": [
    {
      "inputs": [],
      "stateMutability": "nonpayable",
      "type": "constructor"
    },
    {
      "anonymous": false,
      "inputs": [
        {
          "indexed": true,
          "internalType": "address",
          "name": "owner",
          "type": "address"
        },
        {
          "indexed": true,
          "internalType": "address",
          "name": "approved",
          "type": "address"
        },
        {
          "indexed": true,
          "internalType": "uint256",
          "name": "tokenId",
          "type": "uint256"
        }
      ],
      "name": "Approval",
      "type": "event"
    },
    {
      "anonymous": false,
      "inputs": [
        {
          "indexed": true,
          "internalType": "address",
          "name": "owner",
          "type": "address"
        },
        {
          "indexed": true,
          "internalType": "address",
          "name": "operator",
          "type": "address"
        },
        {
          "indexed": false,
          "internalType": "bool",
          "name": "approved",
          "type": "bool"
        }
      ],
      "name": "ApprovalForAll",
      "type": "event"
    },
    {
      "anonymous": false,
      "inputs": [
        {
          "indexed": true,
          "internalType": "address",
          "name": "from",
          "type": "address"
        },
        {
          "indexed": true,
          "internalType": "address",
          "name": "to",
          "type": "address"
        },
        {
          "indexed": true,
          "internalType": "uint256",
          "name": "tokenId",
          "type": "uint256"
        }
      ],
      "name": "Transfer",
      "type": "event"
    },
    {
      "inputs": [
        {
          "internalType": "address",
          "name": "",
          "type": "address"
        }
      ],
      "name": "addressToSellerId",
      "outputs": [
        {
          "internalType": "uint256",
          "name": "",
          "type": "uint256"
        }
      ],
      "stateMutability": "view",
      "type": "function",
      "constant": true
    },
    {
      "inputs": [
        {
          "internalType": "uint256",
          "name": "",
          "type": "uint256"
        }
      ],
      "name": "allSellers",
      "outputs": [
        {
          "internalType": "uint256",
          "name": "id",
          "type": "uint256"
        },
        {
          "internalType": "uint256",
          "name": "itemCounter",
          "type": "uint256"
        },
        {
          "internalType": "address",
          "name": "owner",
          "type": "address"
        }
      ],
      "stateMutability": "view",
      "type": "function",
      "constant": true
    },
    {
      "inputs": [
        {
          "internalType": "address",
          "name": "to",
          "type": "address"
        },
        {
          "internalType": "uint256",
          "name": "tokenId",
          "type": "uint256"
        }
      ],
      "name": "approve",
      "outputs": [],
      "stateMutability": "nonpayable",
      "type": "function"
    },
    {
      "inputs": [
        {
          "internalType": "address",
          "name": "owner",
          "type": "address"
        }
      ],
      "name": "balanceOf",
      "outputs": [
        {
          "internalType": "uint256",
          "name": "",
          "type": "uint256"
        }
      ],
      "stateMutability": "view",
      "type": "function",
      "constant": true
    },
    {
      "inputs": [
        {
          "internalType": "address",
          "name": "",
          "type": "address"
        },
        {
          "internalType": "uint256",
          "name": "",
          "type": "uint256"
        }
      ],
      "name": "buyersCollection",
      "outputs": [
        {
          "internalType": "uint256",
          "name": "",
          "type": "uint256"
        }
      ],
      "stateMutability": "view",
      "type": "function",
      "constant": true
    },
    {
      "inputs": [
        {
          "internalType": "address",
          "name": "",
          "type": "address"
        }
      ],
      "name": "buyersCount",
      "outputs": [
        {
          "internalType": "uint256",
          "name": "",
          "type": "uint256"
        }
      ],
      "stateMutability": "view",
      "type": "function",
      "constant": true
    },
    {
      "inputs": [
        {
          "internalType": "uint256",
          "name": "tokenId",
          "type": "uint256"
        }
      ],
      "name": "getApproved",
      "outputs": [
        {
          "internalType": "address",
          "name": "",
          "type": "address"
        }
      ],
      "stateMutability": "view",
      "type": "function",
      "constant": true
    },
    {
      "inputs": [
        {
          "internalType": "address",
          "name": "owner",
          "type": "address"
        },
        {
          "internalType": "address",
          "name": "operator",
          "type": "address"
        }
      ],
      "name": "isApprovedForAll",
      "outputs": [
        {
          "internalType": "bool",
          "name": "",
          "type": "bool"
        }
      ],
      "stateMutability": "view",
      "type": "function",
      "constant": true
    },
    {
      "inputs": [],
      "name": "name",
      "outputs": [
        {
          "internalType": "string",
          "name": "",
          "type": "string"
        }
      ],
      "stateMutability": "view",
      "type": "function",
      "constant": true
    },
    {
      "inputs": [
        {
          "internalType": "uint256",
          "name": "tokenId",
          "type": "uint256"
        }
      ],
      "name": "ownerOf",
      "outputs": [
        {
          "internalType": "address",
          "name": "",
          "type": "address"
        }
      ],
      "stateMutability": "view",
      "type": "function",
      "constant": true
    },
    {
      "inputs": [
        {
          "internalType": "address",
          "name": "from",
          "type": "address"
        },
        {
          "internalType": "address",
          "name": "to",
          "type": "address"
        },
        {
          "internalType": "uint256",
          "name": "tokenId",
          "type": "uint256"
        }
      ],
      "name": "safeTransferFrom",
      "outputs": [],
      "stateMutability": "nonpayable",
      "type": "function"
    },
    {
      "inputs": [
        {
          "internalType": "address",
          "name": "from",
          "type": "address"
        },
        {
          "internalType": "address",
          "name": "to",
          "type": "address"
        },
        {
          "internalType": "uint256",
          "name": "tokenId",
          "type": "uint256"
        },
        {
          "internalType": "bytes",
          "name": "data",
          "type": "bytes"
        }
      ],
      "name": "safeTransferFrom",
      "outputs": [],
      "stateMutability": "nonpayable",
      "type": "function"
    },
    {
      "inputs": [
        {
          "internalType": "uint256",
          "name": "",
          "type": "uint256"
        },
        {
          "internalType": "uint256",
          "name": "",
          "type": "uint256"
        }
      ],
      "name": "sellerWarrantyDetails",
      "outputs": [
        {
          "internalType": "uint256",
          "name": "tokenId",
          "type": "uint256"
        },
        {
          "internalType": "bytes32",
          "name": "verifyHash",
          "type": "bytes32"
        },
        {
          "internalType": "uint256",
          "name": "creationTime",
          "type": "uint256"
        },
        {
          "internalType": "string",
          "name": "productId",
          "type": "string"
        },
        {
          "internalType": "string",
          "name": "imageURI",
          "type": "string"
        },
        {
          "internalType": "uint256",
          "name": "expiry",
          "type": "uint256"
        },
        {
          "internalType": "enum NFTWarranty.NFTStatus",
          "name": "status",
          "type": "uint8"
        }
      ],
      "stateMutability": "view",
      "type": "function",
      "constant": true
    },
    {
      "inputs": [
        {
          "internalType": "address",
          "name": "operator",
          "type": "address"
        },
        {
          "internalType": "bool",
          "name": "approved",
          "type": "bool"
        }
      ],
      "name": "setApprovalForAll",
      "outputs": [],
      "stateMutability": "nonpayable",
      "type": "function"
    },
    {
      "inputs": [
        {
          "internalType": "bytes4",
          "name": "interfaceId",
          "type": "bytes4"
        }
      ],
      "name": "supportsInterface",
      "outputs": [
        {
          "internalType": "bool",
          "name": "",
          "type": "bool"
        }
      ],
      "stateMutability": "view",
      "type": "function",
      "constant": true
    },
    {
      "inputs": [],
      "name": "symbol",
      "outputs": [
        {
          "internalType": "string",
          "name": "",
          "type": "string"
        }
      ],
      "stateMutability": "view",
      "type": "function",
      "constant": true
    },
    {
      "inputs": [
        {
          "internalType": "uint256",
          "name": "tokenId",
          "type": "uint256"
        }
      ],
      "name": "tokenURI",
      "outputs": [
        {
          "internalType": "string",
          "name": "",
          "type": "string"
        }
      ],
      "stateMutability": "view",
      "type": "function",
      "constant": true
    },
    {
      "inputs": [
        {
          "internalType": "uint256",
          "name": "",
          "type": "uint256"
        },
        {
          "internalType": "uint256",
          "name": "",
          "type": "uint256"
        }
      ],
      "name": "tokenURIList",
      "outputs": [
        {
          "internalType": "string",
          "name": "",
          "type": "string"
        }
      ],
      "stateMutability": "view",
      "type": "function",
      "constant": true
    },
    {
      "inputs": [
        {
          "internalType": "uint256",
          "name": "",
          "type": "uint256"
        }
      ],
      "name": "totalSellers",
      "outputs": [
        {
          "internalType": "uint256",
          "name": "",
          "type": "uint256"
        }
      ],
      "stateMutability": "view",
      "type": "function",
      "constant": true
    },
    {
      "inputs": [
        {
          "internalType": "address",
          "name": "from",
          "type": "address"
        },
        {
          "internalType": "address",
          "name": "to",
          "type": "address"
        },
        {
          "internalType": "uint256",
          "name": "tokenId",
          "type": "uint256"
        }
      ],
      "name": "transferFrom",
      "outputs": [],
      "stateMutability": "nonpayable",
      "type": "function"
    },
    {
      "inputs": [
        {
          "internalType": "string",
          "name": "productId",
          "type": "string"
        },
        {
          "internalType": "uint256",
          "name": "sellerId",
          "type": "uint256"
        },
        {
          "internalType": "uint256",
          "name": "tokenId",
          "type": "uint256"
        }
      ],
      "name": "verifyOwnership",
      "outputs": [
        {
          "internalType": "bool",
          "name": "",
          "type": "bool"
        }
      ],
      "stateMutability": "nonpayable",
      "type": "function"
    },
    {
      "inputs": [
        {
          "internalType": "uint256",
          "name": "sellerId",
          "type": "uint256"
        },
        {
          "internalType": "uint256",
          "name": "tokenId",
          "type": "uint256"
        }
      ],
      "name": "claimNMint",
      "outputs": [],
      "stateMutability": "nonpayable",
      "type": "function"
    },
    {
      "inputs": [
        {
          "internalType": "uint256",
          "name": "sellerId",
          "type": "uint256"
        }
      ],
      "name": "createSeller",
      "outputs": [],
      "stateMutability": "nonpayable",
      "type": "function"
    },
    {
      "inputs": [
        {
          "internalType": "string",
          "name": "tokenURI",
          "type": "string"
        },
        {
          "internalType": "uint256",
          "name": "sellerId",
          "type": "uint256"
        },
        {
          "internalType": "string",
          "name": "productId",
          "type": "string"
        },
        {
          "internalType": "address",
          "name": "customer",
          "type": "address"
        },
        {
          "internalType": "uint256",
          "name": "expiry",
          "type": "uint256"
        },
        {
          "internalType": "string",
          "name": "imageURI",
          "type": "string"
        }
      ],
      "name": "createNFT",
      "outputs": [],
      "stateMutability": "nonpayable",
      "type": "function"
    },
    {
      "inputs": [
        {
          "internalType": "address",
          "name": "to",
          "type": "address"
        },
        {
          "internalType": "uint256",
          "name": "tokenId",
          "type": "uint256"
        },
        {
          "internalType": "uint256",
          "name": "sellerId",
          "type": "uint256"
        }
      ],
      "name": "resell",
      "outputs": [],
      "stateMutability": "nonpayable",
      "type": "function"
    },
    {
      "inputs": [
        {
          "internalType": "uint256",
          "name": "tokenId",
          "type": "uint256"
        }
      ],
      "name": "burn",
      "outputs": [],
      "stateMutability": "nonpayable",
      "type": "function"
    },
    {
      "inputs": [
        {
          "internalType": "uint256",
          "name": "sellerId",
          "type": "uint256"
        }
      ],
      "name": "getSellerNFTs",
      "outputs": [
        {
          "internalType": "uint256[]",
          "name": "",
          "type": "uint256[]"
        }
      ],
      "stateMutability": "view",
      "type": "function",
      "constant": true
    },
    {
      "inputs": [],
      "name": "getSellers",
      "outputs": [
        {
          "internalType": "uint256[]",
          "name": "",
          "type": "uint256[]"
        }
      ],
      "stateMutability": "view",
      "type": "function",
      "constant": true
    },
    {
      "inputs": [
        {
          "internalType": "uint256",
          "name": "sellerId",
          "type": "uint256"
        },
        {
          "internalType": "uint256",
          "name": "tokenId",
          "type": "uint256"
        }
      ],
      "name": "getExpiry",
      "outputs": [
        {
          "internalType": "uint256",
          "name": "expiry",
          "type": "uint256"
        }
      ],
      "stateMutability": "view",
      "type": "function",
      "constant": true
    },
    {
      "inputs": [
        {
          "internalType": "uint256",
          "name": "sellerId",
          "type": "uint256"
        },
        {
          "internalType": "uint256",
          "name": "tokenId",
          "type": "uint256"
        }
      ],
      "name": "getCreation",
      "outputs": [
        {
          "internalType": "uint256",
          "name": "creation",
          "type": "uint256"
        }
      ],
      "stateMutability": "view",
      "type": "function",
      "constant": true
    },
    {
      "inputs": [
        {
          "internalType": "uint256",
          "name": "sellerId",
          "type": "uint256"
        },
        {
          "internalType": "uint256",
          "name": "tokenId",
          "type": "uint256"
        }
      ],
      "name": "getSellerWarrantyDetails",
      "outputs": [
        {
          "components": [
            {
              "internalType": "uint256",
              "name": "tokenId",
              "type": "uint256"
            },
            {
              "internalType": "bytes32",
              "name": "verifyHash",
              "type": "bytes32"
            },
            {
              "internalType": "uint256",
              "name": "creationTime",
              "type": "uint256"
            },
            {
              "internalType": "string",
              "name": "productId",
              "type": "string"
            },
            {
              "internalType": "string",
              "name": "imageURI",
              "type": "string"
            },
            {
              "internalType": "uint256",
              "name": "expiry",
              "type": "uint256"
            },
            {
              "internalType": "address[]",
              "name": "buyers",
              "type": "address[]"
            },
            {
              "internalType": "uint256[]",
              "name": "buyersDate",
              "type": "uint256[]"
            },
            {
              "internalType": "enum NFTWarranty.NFTStatus",
              "name": "status",
              "type": "uint8"
            }
          ],
          "internalType": "struct NFTWarranty.warrantyDetails",
          "name": "",
          "type": "tuple"
        }
      ],
      "stateMutability": "view",
      "type": "function",
      "constant": true
    },
    {
      "inputs": [
        {
          "internalType": "address",
          "name": "add",
          "type": "address"
        },
        {
          "internalType": "uint256",
          "name": "index",
          "type": "uint256"
        }
      ],
      "name": "getBuyersCollection",
      "outputs": [
        {
          "internalType": "uint256",
          "name": "",
          "type": "uint256"
        }
      ],
      "stateMutability": "view",
      "type": "function",
      "constant": true
    }
  ],
  "bytecode": "0x60806040523480156200001157600080fd5b506040518060400160405280600b81526020017f4e465457617272616e74790000000000000000000000000000000000000000008152506040518060400160405280600481526020017f4e4654570000000000000000000000000000000000000000000000000000000081525081600090816200008f919062000324565b508060019081620000a1919062000324565b5050506200040b565b600081519050919050565b7f4e487b7100000000000000000000000000000000000000000000000000000000600052604160045260246000fd5b7f4e487b7100000000000000000000000000000000000000000000000000000000600052602260045260246000fd5b600060028204905060018216806200012c57607f821691505b602082108103620001425762000141620000e4565b5b50919050565b60008190508160005260206000209050919050565b60006020601f8301049050919050565b600082821b905092915050565b600060088302620001ac7fffffffffffffffffffffffffffffffffffffffffffffffffffffffffffffffff826200016d565b620001b886836200016d565b95508019841693508086168417925050509392505050565b6000819050919050565b6000819050919050565b600062000205620001ff620001f984620001d0565b620001da565b620001d0565b9050919050565b6000819050919050565b6200022183620001e4565b6200023962000230826200020c565b8484546200017a565b825550505050565b600090565b6200025062000241565b6200025d81848462000216565b505050565b5b8181101562000285576200027960008262000246565b60018101905062000263565b5050565b601f821115620002d4576200029e8162000148565b620002a9846200015d565b81016020851015620002b9578190505b620002d1620002c8856200015d565b83018262000262565b50505b505050565b600082821c905092915050565b6000620002f960001984600802620002d9565b1980831691505092915050565b6000620003148383620002e6565b9150826002028217905092915050565b6200032f82620000aa565b67ffffffffffffffff8111156200034b576200034a620000b5565b5b62000357825462000113565b6200036482828562000289565b600060209050601f8311600181146200039c576000841562000387578287015190505b62000393858262000306565b86555062000403565b601f198416620003ac8662000148565b60005b82811015620003d657848901518255600182019150602085019450602081019050620003af565b86831015620003f65784890151620003f2601f891682620002e6565b8355505b6001600288020188555050505b505050505050565b614d74806200041b6000396000f3fe608060405234801561001057600080fd5b50600436106101f05760003560e01c80637f3b2cf41161010f578063b88d4fde116100a2578063e985e9c511610071578063e985e9c514610651578063e9b2c95e14610681578063ed4a4a24146106b1578063f5601e4b146106e3576101f0565b8063b88d4fde146105b9578063c839d38c146105d5578063c87b56dd146105f1578063d963729d14610621576101f0565b806395d89b41116100de57806395d89b4114610519578063a22cb46514610537578063aa8c783514610553578063afbd903a14610589576101f0565b80637f3b2cf41461046d5780637fc5a60f146104895780638721f9fc146104b95780639567253f146104e9576101f0565b80632d5052d911610187578063644190b811610156578063644190b8146103bf57806369ac439b146103ef57806370a082311461041f5780637ee454cb1461044f576101f0565b80632d5052d91461032757806342842e0e1461035757806342966c68146103735780636352211e1461038f576101f0565b806315f7b2e5116101c357806315f7b2e51461028f5780631846f582146102bf5780631faea033146102db57806323b872dd1461030b576101f0565b806301ffc9a7146101f557806306fdde0314610225578063081812fc14610243578063095ea7b314610273575b600080fd5b61020f600480360381019061020a919061320a565b6106ff565b60405161021c9190613252565b60405180910390f35b61022d6107e1565b60405161023a9190613306565b60405180910390f35b61025d6004803603810190610258919061335e565b610873565b60405161026a91906133cc565b60405180910390f35b61028d60048036038101906102889190613413565b6108b9565b005b6102a960048036038101906102a49190613588565b6109d0565b6040516102b69190613252565b60405180910390f35b6102d960048036038101906102d491906135f7565b610a8d565b005b6102f560048036038101906102f091906135f7565b610c06565b6040516103029190613967565b60405180910390f35b61032560048036038101906103209190613989565b610eb3565b005b610341600480360381019061033c9190613413565b610f13565b60405161034e91906139eb565b60405180910390f35b610371600480360381019061036c9190613989565b610f44565b005b61038d6004803603810190610388919061335e565b610f64565b005b6103a960048036038101906103a4919061335e565b611008565b6040516103b691906133cc565b60405180910390f35b6103d960048036038101906103d49190613a06565b6110b9565b6040516103e691906139eb565b60405180910390f35b6104096004803603810190610404919061335e565b6110d1565b6040516104169190613aa2565b60405180910390f35b61043960048036038101906104349190613a06565b61113f565b60405161044691906139eb565b60405180910390f35b6104576111f6565b6040516104649190613aa2565b60405180910390f35b61048760048036038101906104829190613ac4565b61124e565b005b6104a3600480360381019061049e91906135f7565b6117f4565b6040516104b091906139eb565b60405180910390f35b6104d360048036038101906104ce9190613a06565b611826565b6040516104e091906139eb565b60405180910390f35b61050360048036038101906104fe919061335e565b61183e565b60405161051091906139eb565b60405180910390f35b610521611862565b60405161052e9190613306565b60405180910390f35b610551600480360381019061054c9190613bd1565b6118f4565b005b61056d600480360381019061056891906135f7565b61190a565b6040516105809796959493929190613c2f565b60405180910390f35b6105a3600480360381019061059e91906135f7565b611a76565b6040516105b09190613306565b60405180910390f35b6105d360048036038101906105ce9190613d4d565b611b23565b005b6105ef60048036038101906105ea9190613dd0565b611b85565b005b61060b6004803603810190610606919061335e565b611d5b565b6040516106189190613306565b60405180910390f35b61063b600480360381019061063691906135f7565b611e6d565b60405161064891906139eb565b60405180910390f35b61066b60048036038101906106669190613e23565b611e9f565b6040516106789190613252565b60405180910390f35b61069b60048036038101906106969190613413565b611f33565b6040516106a891906139eb565b60405180910390f35b6106cb60048036038101906106c6919061335e565b611f99565b6040516106da93929190613e63565b60405180910390f35b6106fd60048036038101906106f8919061335e565b611fe3565b005b60007f80ac58cd000000000000000000000000000000000000000000000000000000007bffffffffffffffffffffffffffffffffffffffffffffffffffffffff1916827bffffffffffffffffffffffffffffffffffffffffffffffffffffffff191614806107ca57507f5b5e139f000000000000000000000000000000000000000000000000000000007bffffffffffffffffffffffffffffffffffffffffffffffffffffffff1916827bffffffffffffffffffffffffffffffffffffffffffffffffffffffff1916145b806107da57506107d9826121dd565b5b9050919050565b6060600080546107f090613ec9565b80601f016020809104026020016040519081016040528092919081815260200182805461081c90613ec9565b80156108695780601f1061083e57610100808354040283529160200191610869565b820191906000526020600020905b81548152906001019060200180831161084c57829003601f168201915b5050505050905090565b600061087e82612247565b6004600083815260200190815260200160002060009054906101000a900473ffffffffffffffffffffffffffffffffffffffff169050919050565b60006108c482611008565b90508073ffffffffffffffffffffffffffffffffffffffff168373ffffffffffffffffffffffffffffffffffffffff1603610934576040517f08c379a000000000000000000000000000000000000000000000000000000000815260040161092b90613f6c565b60405180910390fd5b8073ffffffffffffffffffffffffffffffffffffffff16610953612292565b73ffffffffffffffffffffffffffffffffffffffff16148061098257506109818161097c612292565b611e9f565b5b6109c1576040517f08c379a00000000000000000000000000000000000000000000000000000000081526004016109b890613ffe565b60405180910390fd5b6109cb838361229a565b505050565b600033846040516020016109e592919061401e565b60405160208183030381529060405280519060200120600a600085815260200190815260200160002060008481526020019081526020016000206001015403610a81576001600a6000858152602001908152602001600020600084815260200190815260200160002060080160006101000a81548160ff02191690836003811115610a7357610a72613816565b5b021790555060019050610a86565b600090505b9392505050565b60016003811115610aa157610aa0613816565b5b600a6000848152602001908152602001600020600083815260200190815260200160002060080160009054906101000a900460ff166003811115610ae857610ae7613816565b5b14610af257600080fd5b610afc3382612353565b610bb281600b600085815260200190815260200160002060008481526020019081526020016000208054610b2f90613ec9565b80601f0160208091040260200160405190810160405280929190818152602001828054610b5b90613ec9565b8015610ba85780601f10610b7d57610100808354040283529160200191610ba8565b820191906000526020600020905b815481529060010190602001808311610b8b57829003601f168201915b505050505061252c565b6002600a6000848152602001908152602001600020600083815260200190815260200160002060080160006101000a81548160ff02191690836003811115610bfd57610bfc613816565b5b02179055505050565b610c0e612fcb565b600a6000848152602001908152602001600020600083815260200190815260200160002060405180610120016040529081600082015481526020016001820154815260200160028201548152602001600382018054610c6c90613ec9565b80601f0160208091040260200160405190810160405280929190818152602001828054610c9890613ec9565b8015610ce55780601f10610cba57610100808354040283529160200191610ce5565b820191906000526020600020905b815481529060010190602001808311610cc857829003601f168201915b50505050508152602001600482018054610cfe90613ec9565b80601f0160208091040260200160405190810160405280929190818152602001828054610d2a90613ec9565b8015610d775780601f10610d4c57610100808354040283529160200191610d77565b820191906000526020600020905b815481529060010190602001808311610d5a57829003601f168201915b505050505081526020016005820154815260200160068201805480602002602001604051908101604052809291908181526020018280548015610e0f57602002820191906000526020600020905b8160009054906101000a900473ffffffffffffffffffffffffffffffffffffffff1673ffffffffffffffffffffffffffffffffffffffff1681526020019060010190808311610dc5575b5050505050815260200160078201805480602002602001604051908101604052809291908181526020018280548015610e6757602002820191906000526020600020905b815481526020019060010190808311610e53575b505050505081526020016008820160009054906101000a900460ff166003811115610e9557610e94613816565b5b6003811115610ea757610ea6613816565b5b81525050905092915050565b610ec4610ebe612292565b82612599565b610f03576040517f08c379a0000000000000000000000000000000000000000000000000000000008152600401610efa906140c0565b60405180910390fd5b610f0e83838361262e565b505050565b600c6020528160005260406000208181548110610f2f57600080fd5b90600052602060002001600091509150505481565b610f5f83838360405180602001604052806000815250611b23565b505050565b6000620f424082610f75919061413e565b9050600a6000828152602001908152602001600020600083815260200190815260200160002060050154421015610fab57600080fd5b610fb482612894565b6003600a6000838152602001908152602001600020600084815260200190815260200160002060080160006101000a81548160ff02191690836003811115610fff57610ffe613816565b5b02179055505050565b6000806002600084815260200190815260200160002060009054906101000a900473ffffffffffffffffffffffffffffffffffffffff169050600073ffffffffffffffffffffffffffffffffffffffff168173ffffffffffffffffffffffffffffffffffffffff16036110b0576040517f08c379a00000000000000000000000000000000000000000000000000000000081526004016110a7906141bb565b60405180910390fd5b80915050919050565b600d6020528060005260406000206000915090505481565b60606009600083815260200190815260200160002060030180548060200260200160405190810160405280929190818152602001828054801561113357602002820191906000526020600020905b81548152602001906001019080831161111f575b50505050509050919050565b60008073ffffffffffffffffffffffffffffffffffffffff168273ffffffffffffffffffffffffffffffffffffffff16036111af576040517f08c379a00000000000000000000000000000000000000000000000000000000081526004016111a69061424d565b60405180910390fd5b600360008373ffffffffffffffffffffffffffffffffffffffff1673ffffffffffffffffffffffffffffffffffffffff168152602001908152602001600020549050919050565b6060600780548060200260200160405190810160405280929190818152602001828054801561124457602002820191906000526020600020905b815481526020019060010190808311611230575b5050505050905090565b6009600086815260200190815260200160002060020160009054906101000a900473ffffffffffffffffffffffffffffffffffffffff1673ffffffffffffffffffffffffffffffffffffffff163373ffffffffffffffffffffffffffffffffffffffff16146112f2576040517f08c379a00000000000000000000000000000000000000000000000000000000081526004016112e9906142b9565b60405180910390fd5b6112fa612fcb565b42816040018181525050838560405160200161131792919061401e565b6040516020818303038152906040528051906020012081602001818152505082816040015161134691906142d9565b8160a001818152505060006009600088815260200190815260200160002060010154620f4240600960008a81526020019081526020016000206000015461138d919061432f565b61139791906142d9565b905081600a6000898152602001908152602001600020600083815260200190815260200160002060008201518160000155602082015181600101556040820151816002015560608201518160030190816113f19190614535565b5060808201518160040190816114079190614535565b5060a0820151816005015560c082015181600601908051906020019061142e92919061302c565b5060e082015181600701908051906020019061144b9291906130b6565b506101008201518160080160006101000a81548160ff0219169083600381111561147857611477613816565b5b021790555090505085600a6000898152602001908152602001600020600083815260200190815260200160002060030190816114b49190614535565b506009600088815260200190815260200160002060030181908060018154018082558091505060019003906000526020600020016000909190919091505580600a6000898152602001908152602001600020600083815260200190815260200160002060000181905550848660405160200161153192919061401e565b60405160208183030381529060405280519060200120600a600089815260200190815260200160002060008381526020019081526020016000206001018190555082600a6000898152602001908152602001600020600083815260200190815260200160002060040190816115a69190614535565b50600a60008881526020019081526020016000206000828152602001908152602001600020600601859080600181540180825580915050600190039060005260206000200160009091909190916101000a81548173ffffffffffffffffffffffffffffffffffffffff021916908373ffffffffffffffffffffffffffffffffffffffff1602179055506000600a6000898152602001908152602001600020600083815260200190815260200160002060080160006101000a81548160ff0219169083600381111561167a57611679613816565b5b0217905550600a60008881526020019081526020016000206000828152602001908152602001600020600701826040015190806001815401808255809150506001900390600052602060002001600090919091909150556009600088815260200190815260200160002060010160008154809291906116f890614607565b9190505550600c60008673ffffffffffffffffffffffffffffffffffffffff1673ffffffffffffffffffffffffffffffffffffffff168152602001908152602001600020819080600181540180825580915050600190039060005260206000200160009091909190915055600d60008673ffffffffffffffffffffffffffffffffffffffff1673ffffffffffffffffffffffffffffffffffffffff16815260200190815260200160002060008154809291906117b390614607565b919050555087600b6000898152602001908152602001600020600083815260200190815260200160002090816117e99190614535565b505050505050505050565b6000600a6000848152602001908152602001600020600083815260200190815260200160002060050154905092915050565b60086020528060005260406000206000915090505481565b6007818154811061184e57600080fd5b906000526020600020016000915090505481565b60606001805461187190613ec9565b80601f016020809104026020016040519081016040528092919081815260200182805461189d90613ec9565b80156118ea5780601f106118bf576101008083540402835291602001916118ea565b820191906000526020600020905b8154815290600101906020018083116118cd57829003601f168201915b5050505050905090565b6119066118ff612292565b83836128e7565b5050565b600a6020528160005260406000206020528060005260406000206000915091505080600001549080600101549080600201549080600301805461194c90613ec9565b80601f016020809104026020016040519081016040528092919081815260200182805461197890613ec9565b80156119c55780601f1061199a576101008083540402835291602001916119c5565b820191906000526020600020905b8154815290600101906020018083116119a857829003601f168201915b5050505050908060040180546119da90613ec9565b80601f0160208091040260200160405190810160405280929190818152602001828054611a0690613ec9565b8015611a535780601f10611a2857610100808354040283529160200191611a53565b820191906000526020600020905b815481529060010190602001808311611a3657829003601f168201915b5050505050908060050154908060080160009054906101000a900460ff16905087565b600b602052816000526040600020602052806000526040600020600091509150508054611aa290613ec9565b80601f0160208091040260200160405190810160405280929190818152602001828054611ace90613ec9565b8015611b1b5780601f10611af057610100808354040283529160200191611b1b565b820191906000526020600020905b815481529060010190602001808311611afe57829003601f168201915b505050505081565b611b34611b2e612292565b83612599565b611b73576040517f08c379a0000000000000000000000000000000000000000000000000000000008152600401611b6a906140c0565b60405180910390fd5b611b7f84848484612a53565b50505050565b3373ffffffffffffffffffffffffffffffffffffffff16611ba583611008565b73ffffffffffffffffffffffffffffffffffffffff1614611bfb576040517f08c379a0000000000000000000000000000000000000000000000000000000008152600401611bf29061469b565b60405180910390fd5b82600a60008381526020019081526020016000206000848152602001908152602001600020600301604051602001611c3492919061473f565b60405160208183030381529060405280519060200120600a6000838152602001908152602001600020600084815260200190815260200160002060010181905550600a60008281526020019081526020016000206000838152602001908152602001600020600601839080600181540180825580915050600190039060005260206000200160009091909190916101000a81548173ffffffffffffffffffffffffffffffffffffffff021916908373ffffffffffffffffffffffffffffffffffffffff160217905550600a60008281526020019081526020016000206000838152602001908152602001600020600701429080600181540180825580915050600190039060005260206000200160009091909190915055611d5633848461262e565b505050565b6060611d6682612247565b6000600660008481526020019081526020016000208054611d8690613ec9565b80601f0160208091040260200160405190810160405280929190818152602001828054611db290613ec9565b8015611dff5780601f10611dd457610100808354040283529160200191611dff565b820191906000526020600020905b815481529060010190602001808311611de257829003601f168201915b505050505090506000611e10612aaf565b90506000815103611e25578192505050611e68565b600082511115611e5a578082604051602001611e429291906147ab565b60405160208183030381529060405292505050611e68565b611e6384612ac6565b925050505b919050565b6000600a6000848152602001908152602001600020600083815260200190815260200160002060020154905092915050565b6000600560008473ffffffffffffffffffffffffffffffffffffffff1673ffffffffffffffffffffffffffffffffffffffff16815260200190815260200160002060008373ffffffffffffffffffffffffffffffffffffffff1673ffffffffffffffffffffffffffffffffffffffff16815260200190815260200160002060009054906101000a900460ff16905092915050565b6000600c60008473ffffffffffffffffffffffffffffffffffffffff1673ffffffffffffffffffffffffffffffffffffffff1681526020019081526020016000208281548110611f8657611f856147cf565b5b9060005260206000200154905092915050565b60096020528060005260406000206000915090508060000154908060010154908060020160009054906101000a900473ffffffffffffffffffffffffffffffffffffffff16905083565b600073ffffffffffffffffffffffffffffffffffffffff166009600083815260200190815260200160002060020160009054906101000a900473ffffffffffffffffffffffffffffffffffffffff1673ffffffffffffffffffffffffffffffffffffffff1614612088576040517f08c379a000000000000000000000000000000000000000000000000000000000815260040161207f9061484a565b60405180910390fd5b612090613103565b8181600001818152505033816040019073ffffffffffffffffffffffffffffffffffffffff16908173ffffffffffffffffffffffffffffffffffffffff168152505060008160200181815250508060096000848152602001908152602001600020600082015181600001556020820151816001015560408201518160020160006101000a81548173ffffffffffffffffffffffffffffffffffffffff021916908373ffffffffffffffffffffffffffffffffffffffff16021790555060608201518160030190805190602001906121689291906130b6565b50905050600782908060018154018082558091505060019003906000526020600020016000909190919091505581600860003373ffffffffffffffffffffffffffffffffffffffff1673ffffffffffffffffffffffffffffffffffffffff168152602001908152602001600020819055505050565b60007f01ffc9a7000000000000000000000000000000000000000000000000000000007bffffffffffffffffffffffffffffffffffffffffffffffffffffffff1916827bffffffffffffffffffffffffffffffffffffffffffffffffffffffff1916149050919050565b61225081612b2e565b61228f576040517f08c379a0000000000000000000000000000000000000000000000000000000008152600401612286906141bb565b60405180910390fd5b50565b600033905090565b816004600083815260200190815260200160002060006101000a81548173ffffffffffffffffffffffffffffffffffffffff021916908373ffffffffffffffffffffffffffffffffffffffff160217905550808273ffffffffffffffffffffffffffffffffffffffff1661230d83611008565b73ffffffffffffffffffffffffffffffffffffffff167f8c5be1e5ebec7d5bd14f71427d1e84f3dd0314c0f7b2291e5b200ac8c7c3b92560405160405180910390a45050565b600073ffffffffffffffffffffffffffffffffffffffff168273ffffffffffffffffffffffffffffffffffffffff16036123c2576040517f08c379a00000000000000000000000000000000000000000000000000000000081526004016123b9906148b6565b60405180910390fd5b6123cb81612b2e565b1561240b576040517f08c379a000000000000000000000000000000000000000000000000000000000815260040161240290614922565b60405180910390fd5b61241760008383612b9a565b6001600360008473ffffffffffffffffffffffffffffffffffffffff1673ffffffffffffffffffffffffffffffffffffffff168152602001908152602001600020600082825461246791906142d9565b92505081905550816002600083815260200190815260200160002060006101000a81548173ffffffffffffffffffffffffffffffffffffffff021916908373ffffffffffffffffffffffffffffffffffffffff160217905550808273ffffffffffffffffffffffffffffffffffffffff16600073ffffffffffffffffffffffffffffffffffffffff167fddf252ad1be2c89b69c2b068fc378daa952ba7f163c4a11628f55a4df523b3ef60405160405180910390a461252860008383612b9f565b5050565b61253582612b2e565b612574576040517f08c379a000000000000000000000000000000000000000000000000000000000815260040161256b906149b4565b60405180910390fd5b806006600084815260200190815260200160002090816125949190614535565b505050565b6000806125a583611008565b90508073ffffffffffffffffffffffffffffffffffffffff168473ffffffffffffffffffffffffffffffffffffffff1614806125e757506125e68185611e9f565b5b8061262557508373ffffffffffffffffffffffffffffffffffffffff1661260d84610873565b73ffffffffffffffffffffffffffffffffffffffff16145b91505092915050565b8273ffffffffffffffffffffffffffffffffffffffff1661264e82611008565b73ffffffffffffffffffffffffffffffffffffffff16146126a4576040517f08c379a000000000000000000000000000000000000000000000000000000000815260040161269b90614a46565b60405180910390fd5b600073ffffffffffffffffffffffffffffffffffffffff168273ffffffffffffffffffffffffffffffffffffffff1603612713576040517f08c379a000000000000000000000000000000000000000000000000000000000815260040161270a90614ad8565b60405180910390fd5b61271e838383612b9a565b61272960008261229a565b6001600360008573ffffffffffffffffffffffffffffffffffffffff1673ffffffffffffffffffffffffffffffffffffffff16815260200190815260200160002060008282546127799190614af8565b925050819055506001600360008473ffffffffffffffffffffffffffffffffffffffff1673ffffffffffffffffffffffffffffffffffffffff16815260200190815260200160002060008282546127d091906142d9565b92505081905550816002600083815260200190815260200160002060006101000a81548173ffffffffffffffffffffffffffffffffffffffff021916908373ffffffffffffffffffffffffffffffffffffffff160217905550808273ffffffffffffffffffffffffffffffffffffffff168473ffffffffffffffffffffffffffffffffffffffff167fddf252ad1be2c89b69c2b068fc378daa952ba7f163c4a11628f55a4df523b3ef60405160405180910390a461288f838383612b9f565b505050565b61289d81612ba4565b60006006600083815260200190815260200160002080546128bd90613ec9565b9050146128e4576006600082815260200190815260200160002060006128e39190613141565b5b50565b8173ffffffffffffffffffffffffffffffffffffffff168373ffffffffffffffffffffffffffffffffffffffff1603612955576040517f08c379a000000000000000000000000000000000000000000000000000000000815260040161294c90614b78565b60405180910390fd5b80600560008573ffffffffffffffffffffffffffffffffffffffff1673ffffffffffffffffffffffffffffffffffffffff16815260200190815260200160002060008473ffffffffffffffffffffffffffffffffffffffff1673ffffffffffffffffffffffffffffffffffffffff16815260200190815260200160002060006101000a81548160ff0219169083151502179055508173ffffffffffffffffffffffffffffffffffffffff168373ffffffffffffffffffffffffffffffffffffffff167f17307eab39ab6107e8899845ad3d59bd9653f200f220920489ca2b5937696c3183604051612a469190613252565b60405180910390a3505050565b612a5e84848461262e565b612a6a84848484612cc1565b612aa9576040517f08c379a0000000000000000000000000000000000000000000000000000000008152600401612aa090614c0a565b60405180910390fd5b50505050565b606060405180602001604052806000815250905090565b6060612ad182612247565b6000612adb612aaf565b90506000815111612afb5760405180602001604052806000815250612b26565b80612b0584612e48565b604051602001612b169291906147ab565b6040516020818303038152906040525b915050919050565b60008073ffffffffffffffffffffffffffffffffffffffff166002600084815260200190815260200160002060009054906101000a900473ffffffffffffffffffffffffffffffffffffffff1673ffffffffffffffffffffffffffffffffffffffff1614159050919050565b505050565b505050565b6000612baf82611008565b9050612bbd81600084612b9a565b612bc860008361229a565b6001600360008373ffffffffffffffffffffffffffffffffffffffff1673ffffffffffffffffffffffffffffffffffffffff1681526020019081526020016000206000828254612c189190614af8565b925050819055506002600083815260200190815260200160002060006101000a81549073ffffffffffffffffffffffffffffffffffffffff021916905581600073ffffffffffffffffffffffffffffffffffffffff168273ffffffffffffffffffffffffffffffffffffffff167fddf252ad1be2c89b69c2b068fc378daa952ba7f163c4a11628f55a4df523b3ef60405160405180910390a4612cbd81600084612b9f565b5050565b6000612ce28473ffffffffffffffffffffffffffffffffffffffff16612fa8565b15612e3b578373ffffffffffffffffffffffffffffffffffffffff1663150b7a02612d0b612292565b8786866040518563ffffffff1660e01b8152600401612d2d9493929190614c7f565b6020604051808303816000875af1925050508015612d6957506040513d601f19601f82011682018060405250810190612d669190614ce0565b60015b612deb573d8060008114612d99576040519150601f19603f3d011682016040523d82523d6000602084013e612d9e565b606091505b506000815103612de3576040517f08c379a0000000000000000000000000000000000000000000000000000000008152600401612dda90614c0a565b60405180910390fd5b805181602001fd5b63150b7a0260e01b7bffffffffffffffffffffffffffffffffffffffffffffffffffffffff1916817bffffffffffffffffffffffffffffffffffffffffffffffffffffffff191614915050612e40565b600190505b949350505050565b606060008203612e8f576040518060400160405280600181526020017f30000000000000000000000000000000000000000000000000000000000000008152509050612fa3565b600082905060005b60008214612ec1578080612eaa90614607565b915050600a82612eba919061413e565b9150612e97565b60008167ffffffffffffffff811115612edd57612edc61345d565b5b6040519080825280601f01601f191660200182016040528015612f0f5781602001600182028036833780820191505090505b5090505b60008514612f9c57600182612f289190614af8565b9150600a85612f379190614d0d565b6030612f4391906142d9565b60f81b818381518110612f5957612f586147cf565b5b60200101907effffffffffffffffffffffffffffffffffffffffffffffffffffffffffffff1916908160001a905350600a85612f95919061413e565b9450612f13565b8093505050505b919050565b6000808273ffffffffffffffffffffffffffffffffffffffff163b119050919050565b60405180610120016040528060008152602001600080191681526020016000815260200160608152602001606081526020016000815260200160608152602001606081526020016000600381111561302657613025613816565b5b81525090565b8280548282559060005260206000209081019282156130a5579160200282015b828111156130a45782518260006101000a81548173ffffffffffffffffffffffffffffffffffffffff021916908373ffffffffffffffffffffffffffffffffffffffff1602179055509160200191906001019061304c565b5b5090506130b29190613181565b5090565b8280548282559060005260206000209081019282156130f2579160200282015b828111156130f15782518255916020019190600101906130d6565b5b5090506130ff9190613181565b5090565b60405180608001604052806000815260200160008152602001600073ffffffffffffffffffffffffffffffffffffffff168152602001606081525090565b50805461314d90613ec9565b6000825580601f1061315f575061317e565b601f01602090049060005260206000209081019061317d9190613181565b5b50565b5b8082111561319a576000816000905550600101613182565b5090565b6000604051905090565b600080fd5b600080fd5b60007fffffffff0000000000000000000000000000000000000000000000000000000082169050919050565b6131e7816131b2565b81146131f257600080fd5b50565b600081359050613204816131de565b92915050565b6000602082840312156132205761321f6131a8565b5b600061322e848285016131f5565b91505092915050565b60008115159050919050565b61324c81613237565b82525050565b60006020820190506132676000830184613243565b92915050565b600081519050919050565b600082825260208201905092915050565b60005b838110156132a757808201518184015260208101905061328c565b838111156132b6576000848401525b50505050565b6000601f19601f8301169050919050565b60006132d88261326d565b6132e28185613278565b93506132f2818560208601613289565b6132fb816132bc565b840191505092915050565b6000602082019050818103600083015261332081846132cd565b905092915050565b6000819050919050565b61333b81613328565b811461334657600080fd5b50565b60008135905061335881613332565b92915050565b600060208284031215613374576133736131a8565b5b600061338284828501613349565b91505092915050565b600073ffffffffffffffffffffffffffffffffffffffff82169050919050565b60006133b68261338b565b9050919050565b6133c6816133ab565b82525050565b60006020820190506133e160008301846133bd565b92915050565b6133f0816133ab565b81146133fb57600080fd5b50565b60008135905061340d816133e7565b92915050565b6000806040838503121561342a576134296131a8565b5b6000613438858286016133fe565b925050602061344985828601613349565b9150509250929050565b600080fd5b600080fd5b7f4e487b7100000000000000000000000000000000000000000000000000000000600052604160045260246000fd5b613495826132bc565b810181811067ffffffffffffffff821117156134b4576134b361345d565b5b80604052505050565b60006134c761319e565b90506134d3828261348c565b919050565b600067ffffffffffffffff8211156134f3576134f261345d565b5b6134fc826132bc565b9050602081019050919050565b82818337600083830152505050565b600061352b613526846134d8565b6134bd565b90508281526020810184848401111561354757613546613458565b5b613552848285613509565b509392505050565b600082601f83011261356f5761356e613453565b5b813561357f848260208601613518565b91505092915050565b6000806000606084860312156135a1576135a06131a8565b5b600084013567ffffffffffffffff8111156135bf576135be6131ad565b5b6135cb8682870161355a565b93505060206135dc86828701613349565b92505060406135ed86828701613349565b9150509250925092565b6000806040838503121561360e5761360d6131a8565b5b600061361c85828601613349565b925050602061362d85828601613349565b9150509250929050565b61364081613328565b82525050565b6000819050919050565b61365981613646565b82525050565b600082825260208201905092915050565b600061367b8261326d565b613685818561365f565b9350613695818560208601613289565b61369e816132bc565b840191505092915050565b600081519050919050565b600082825260208201905092915050565b6000819050602082019050919050565b6136de816133ab565b82525050565b60006136f083836136d5565b60208301905092915050565b6000602082019050919050565b6000613714826136a9565b61371e81856136b4565b9350613729836136c5565b8060005b8381101561375a57815161374188826136e4565b975061374c836136fc565b92505060018101905061372d565b5085935050505092915050565b600081519050919050565b600082825260208201905092915050565b6000819050602082019050919050565b600061379f8383613637565b60208301905092915050565b6000602082019050919050565b60006137c382613767565b6137cd8185613772565b93506137d883613783565b8060005b838110156138095781516137f08882613793565b97506137fb836137ab565b9250506001810190506137dc565b5085935050505092915050565b7f4e487b7100000000000000000000000000000000000000000000000000000000600052602160045260246000fd5b6004811061385657613855613816565b5b50565b600081905061386782613845565b919050565b600061387782613859565b9050919050565b6138878161386c565b82525050565b6000610120830160008301516138a66000860182613637565b5060208301516138b96020860182613650565b5060408301516138cc6040860182613637565b50606083015184820360608601526138e48282613670565b915050608083015184820360808601526138fe8282613670565b91505060a083015161391360a0860182613637565b5060c083015184820360c086015261392b8282613709565b91505060e083015184820360e086015261394582826137b8565b91505061010083015161395c61010086018261387e565b508091505092915050565b60006020820190508181036000830152613981818461388d565b905092915050565b6000806000606084860312156139a2576139a16131a8565b5b60006139b0868287016133fe565b93505060206139c1868287016133fe565b92505060406139d286828701613349565b9150509250925092565b6139e581613328565b82525050565b6000602082019050613a0060008301846139dc565b92915050565b600060208284031215613a1c57613a1b6131a8565b5b6000613a2a848285016133fe565b91505092915050565b600082825260208201905092915050565b6000613a4f82613767565b613a598185613a33565b9350613a6483613783565b8060005b83811015613a95578151613a7c8882613793565b9750613a87836137ab565b925050600181019050613a68565b5085935050505092915050565b60006020820190508181036000830152613abc8184613a44565b905092915050565b60008060008060008060c08789031215613ae157613ae06131a8565b5b600087013567ffffffffffffffff811115613aff57613afe6131ad565b5b613b0b89828a0161355a565b9650506020613b1c89828a01613349565b955050604087013567ffffffffffffffff811115613b3d57613b3c6131ad565b5b613b4989828a0161355a565b9450506060613b5a89828a016133fe565b9350506080613b6b89828a01613349565b92505060a087013567ffffffffffffffff811115613b8c57613b8b6131ad565b5b613b9889828a0161355a565b9150509295509295509295565b613bae81613237565b8114613bb957600080fd5b50565b600081359050613bcb81613ba5565b92915050565b60008060408385031215613be857613be76131a8565b5b6000613bf6858286016133fe565b9250506020613c0785828601613bbc565b9150509250929050565b613c1a81613646565b82525050565b613c298161386c565b82525050565b600060e082019050613c44600083018a6139dc565b613c516020830189613c11565b613c5e60408301886139dc565b8181036060830152613c7081876132cd565b90508181036080830152613c8481866132cd565b9050613c9360a08301856139dc565b613ca060c0830184613c20565b98975050505050505050565b600067ffffffffffffffff821115613cc757613cc661345d565b5b613cd0826132bc565b9050602081019050919050565b6000613cf0613ceb84613cac565b6134bd565b905082815260208101848484011115613d0c57613d0b613458565b5b613d17848285613509565b509392505050565b600082601f830112613d3457613d33613453565b5b8135613d44848260208601613cdd565b91505092915050565b60008060008060808587031215613d6757613d666131a8565b5b6000613d75878288016133fe565b9450506020613d86878288016133fe565b9350506040613d9787828801613349565b925050606085013567ffffffffffffffff811115613db857613db76131ad565b5b613dc487828801613d1f565b91505092959194509250565b600080600060608486031215613de957613de86131a8565b5b6000613df7868287016133fe565b9350506020613e0886828701613349565b9250506040613e1986828701613349565b9150509250925092565b60008060408385031215613e3a57613e396131a8565b5b6000613e48858286016133fe565b9250506020613e59858286016133fe565b9150509250929050565b6000606082019050613e7860008301866139dc565b613e8560208301856139dc565b613e9260408301846133bd565b949350505050565b7f4e487b7100000000000000000000000000000000000000000000000000000000600052602260045260246000fd5b60006002820490506001821680613ee157607f821691505b602082108103613ef457613ef3613e9a565b5b50919050565b7f4552433732313a20617070726f76616c20746f2063757272656e74206f776e6560008201527f7200000000000000000000000000000000000000000000000000000000000000602082015250565b6000613f56602183613278565b9150613f6182613efa565b604082019050919050565b60006020820190508181036000830152613f8581613f49565b9050919050565b7f4552433732313a20617070726f76652063616c6c6572206973206e6f7420746f60008201527f6b656e206f776e6572206e6f7220617070726f76656420666f7220616c6c0000602082015250565b6000613fe8603e83613278565b9150613ff382613f8c565b604082019050919050565b6000602082019050818103600083015261401781613fdb565b9050919050565b600060408201905061403360008301856133bd565b818103602083015261404581846132cd565b90509392505050565b7f4552433732313a2063616c6c6572206973206e6f7420746f6b656e206f776e6560008201527f72206e6f7220617070726f766564000000000000000000000000000000000000602082015250565b60006140aa602e83613278565b91506140b58261404e565b604082019050919050565b600060208201905081810360008301526140d98161409d565b9050919050565b7f4e487b7100000000000000000000000000000000000000000000000000000000600052601260045260246000fd5b7f4e487b7100000000000000000000000000000000000000000000000000000000600052601160045260246000fd5b600061414982613328565b915061415483613328565b925082614164576141636140e0565b5b828204905092915050565b7f4552433732313a20696e76616c696420746f6b656e2049440000000000000000600082015250565b60006141a5601883613278565b91506141b08261416f565b602082019050919050565b600060208201905081810360008301526141d481614198565b9050919050565b7f4552433732313a2061646472657373207a65726f206973206e6f74206120766160008201527f6c6964206f776e65720000000000000000000000000000000000000000000000602082015250565b6000614237602983613278565b9150614242826141db565b604082019050919050565b600060208201905081810360008301526142668161422a565b9050919050565b7f4d757374206265206f776e657200000000000000000000000000000000000000600082015250565b60006142a3600d83613278565b91506142ae8261426d565b602082019050919050565b600060208201905081810360008301526142d281614296565b9050919050565b60006142e482613328565b91506142ef83613328565b9250827fffffffffffffffffffffffffffffffffffffffffffffffffffffffffffffffff038211156143245761432361410f565b5b828201905092915050565b600061433a82613328565b915061434583613328565b9250817fffffffffffffffffffffffffffffffffffffffffffffffffffffffffffffffff048311821515161561437e5761437d61410f565b5b828202905092915050565b60008190508160005260206000209050919050565b60006020601f8301049050919050565b600082821b905092915050565b6000600883026143eb7fffffffffffffffffffffffffffffffffffffffffffffffffffffffffffffffff826143ae565b6143f586836143ae565b95508019841693508086168417925050509392505050565b6000819050919050565b600061443261442d61442884613328565b61440d565b613328565b9050919050565b6000819050919050565b61444c83614417565b61446061445882614439565b8484546143bb565b825550505050565b600090565b614475614468565b614480818484614443565b505050565b5b818110156144a45761449960008261446d565b600181019050614486565b5050565b601f8211156144e9576144ba81614389565b6144c38461439e565b810160208510156144d2578190505b6144e66144de8561439e565b830182614485565b50505b505050565b600082821c905092915050565b600061450c600019846008026144ee565b1980831691505092915050565b600061452583836144fb565b9150826002028217905092915050565b61453e8261326d565b67ffffffffffffffff8111156145575761455661345d565b5b6145618254613ec9565b61456c8282856144a8565b600060209050601f83116001811461459f576000841561458d578287015190505b6145978582614519565b8655506145ff565b601f1984166145ad86614389565b60005b828110156145d5578489015182556001820191506020850194506020810190506145b0565b868310156145f257848901516145ee601f8916826144fb565b8355505b6001600288020188555050505b505050505050565b600061461282613328565b91507fffffffffffffffffffffffffffffffffffffffffffffffffffffffffffffffff82036146445761464361410f565b5b600182019050919050565b7f4e6f74204f776e65720000000000000000000000000000000000000000000000600082015250565b6000614685600983613278565b91506146908261464f565b602082019050919050565b600060208201905081810360008301526146b481614678565b9050919050565b600081546146c881613ec9565b6146d28186613278565b945060018216600081146146ed576001811461470357614736565b60ff198316865281151560200286019350614736565b61470c85614389565b60005b8381101561472e5781548189015260018201915060208101905061470f565b808801955050505b50505092915050565b600060408201905061475460008301856133bd565b818103602083015261476681846146bb565b90509392505050565b600081905092915050565b60006147858261326d565b61478f818561476f565b935061479f818560208601613289565b80840191505092915050565b60006147b7828561477a565b91506147c3828461477a565b91508190509392505050565b7f4e487b7100000000000000000000000000000000000000000000000000000000600052603260045260246000fd5b7f53656c6c657220416c7265616479206578697374000000000000000000000000600082015250565b6000614834601483613278565b915061483f826147fe565b602082019050919050565b6000602082019050818103600083015261486381614827565b9050919050565b7f4552433732313a206d696e7420746f20746865207a65726f2061646472657373600082015250565b60006148a0602083613278565b91506148ab8261486a565b602082019050919050565b600060208201905081810360008301526148cf81614893565b9050919050565b7f4552433732313a20746f6b656e20616c7265616479206d696e74656400000000600082015250565b600061490c601c83613278565b9150614917826148d6565b602082019050919050565b6000602082019050818103600083015261493b816148ff565b9050919050565b7f45524337323155524953746f726167653a2055524920736574206f66206e6f6e60008201527f6578697374656e7420746f6b656e000000000000000000000000000000000000602082015250565b600061499e602e83613278565b91506149a982614942565b604082019050919050565b600060208201905081810360008301526149cd81614991565b9050919050565b7f4552433732313a207472616e736665722066726f6d20696e636f72726563742060008201527f6f776e6572000000000000000000000000000000000000000000000000000000602082015250565b6000614a30602583613278565b9150614a3b826149d4565b604082019050919050565b60006020820190508181036000830152614a5f81614a23565b9050919050565b7f4552433732313a207472616e7366657220746f20746865207a65726f2061646460008201527f7265737300000000000000000000000000000000000000000000000000000000602082015250565b6000614ac2602483613278565b9150614acd82614a66565b604082019050919050565b60006020820190508181036000830152614af181614ab5565b9050919050565b6000614b0382613328565b9150614b0e83613328565b925082821015614b2157614b2061410f565b5b828203905092915050565b7f4552433732313a20617070726f766520746f2063616c6c657200000000000000600082015250565b6000614b62601983613278565b9150614b6d82614b2c565b602082019050919050565b60006020820190508181036000830152614b9181614b55565b9050919050565b7f4552433732313a207472616e7366657220746f206e6f6e20455243373231526560008201527f63656976657220696d706c656d656e7465720000000000000000000000000000602082015250565b6000614bf4603283613278565b9150614bff82614b98565b604082019050919050565b60006020820190508181036000830152614c2381614be7565b9050919050565b600081519050919050565b600082825260208201905092915050565b6000614c5182614c2a565b614c5b8185614c35565b9350614c6b818560208601613289565b614c74816132bc565b840191505092915050565b6000608082019050614c9460008301876133bd565b614ca160208301866133bd565b614cae60408301856139dc565b8181036060830152614cc08184614c46565b905095945050505050565b600081519050614cda816131de565b92915050565b600060208284031215614cf657614cf56131a8565b5b6000614d0484828501614ccb565b91505092915050565b6000614d1882613328565b9150614d2383613328565b925082614d3357614d326140e0565b5b82820690509291505056fea26469706673582212205104bceab9ee519d2f2a566ca5219eba5c4fde54d94482a9d0d12b1513274e9064736f6c634300080f0033",
  "immutableReferences": {},
  "source": "// SPDX-License-Identifier: GPL-3.0\r\npragma solidity ^0.8.7;\r\n\r\nimport \"@openzeppelin/contracts/token/ERC721/extensions/ERC721URIStorage.sol\";\r\nimport \"@openzeppelin/contracts/utils/Counters.sol\";\r\n\r\ncontract NFTWarranty is ERC721URIStorage {\r\n    //using Counters for Counters.Counter;\r\n    //Counters.Counter private _tokenIds;\r\n\r\n        constructor() ERC721(\"NFTWarranty\", \"NFTW\") {}\r\n\r\n     struct seller{\r\n        uint256 id;\r\n        uint256 itemCounter;\r\n        address owner;\r\n        uint256 [] allNFTs;\r\n        //string tokenURI;\r\n     \r\n    }\r\n     struct warrantyDetails{\r\n        uint256 tokenId;\r\n        bytes32 verifyHash;\r\n        uint256 creationTime;\r\n        string  productId;\r\n        string imageURI;\r\n        uint256 expiry;\r\n        address[]buyers;\r\n        uint256[]buyersDate;\r\n        NFTStatus status;\r\n    }\r\n    //verify ownership\r\n    enum NFTStatus{\r\n        Pending,\r\n        Verified,\r\n        Active,\r\n        Expired\r\n    }\r\n    \r\n    uint256 [] public totalSellers;\r\n    mapping (address=>uint256) public addressToSellerId;\r\n    mapping(uint256=>seller) public allSellers;\r\n    mapping(uint256=>mapping(uint256=>warrantyDetails)) public sellerWarrantyDetails;\r\n    mapping(uint256=>mapping(uint256=>string)) public tokenURIList;\r\n    mapping (address=>uint256[]) public buyersCollection;\r\n    mapping (address=>uint256) public buyersCount;\r\n\r\n    function verifyOwnership(string memory productId,uint256 sellerId,uint256 tokenId)public returns(bool){\r\n        //require(sellerWarrantyDetails[sellerId][tokenId].verifyHash!=bytes32(0x0),\"Item doesn't Exist\");\r\n        \r\n        if(sellerWarrantyDetails[sellerId][tokenId].verifyHash==keccak256(abi.encode(msg.sender,productId))){\r\n            sellerWarrantyDetails[sellerId][tokenId].status = NFTStatus.Verified;\r\n            return true;\r\n            \r\n        }\r\n        else return false;\r\n    }\r\n    function claimNMint(uint256 sellerId,uint256 tokenId)public {\r\n        require(sellerWarrantyDetails[sellerId][tokenId].status == NFTStatus.Verified);\r\n        _mint(msg.sender,tokenId);\r\n        _setTokenURI(tokenId,tokenURIList[sellerId][tokenId]); \r\n        sellerWarrantyDetails[sellerId][tokenId].status =  NFTStatus.Active;\r\n \r\n\r\n    }\r\n    function createSeller(uint256 sellerId) public{\r\n        require(allSellers[sellerId].owner==address(0x0),\"Seller Already exist\");\r\n         seller memory newSeller;\r\n         newSeller.id = sellerId;\r\n         newSeller.owner = msg.sender;\r\n         newSeller.itemCounter = 0;\r\n         allSellers[sellerId] = newSeller;\r\n         totalSellers.push(sellerId);\r\n         addressToSellerId[msg.sender] = sellerId;\r\n\r\n    }\r\n    function createNFT(string memory tokenURI,uint256 sellerId,string memory productId,address customer,uint256 expiry,string memory imageURI)public{\r\n      //require(tokenURIList[sellerId][allSellers[sellerId].itemCounter].length==0,\"\");\r\n\r\n      require(msg.sender== allSellers[sellerId].owner,\"Must be owner\");\r\n      warrantyDetails memory newNFT;\r\n\r\n      newNFT.creationTime = block.timestamp;\r\n      newNFT.verifyHash = keccak256(abi.encode(customer,productId));\r\n      newNFT.expiry =  newNFT.creationTime + expiry;\r\n        \r\n      uint256 Id = allSellers[sellerId].id*1000000+allSellers[sellerId].itemCounter;\r\n       sellerWarrantyDetails[sellerId][Id]=newNFT;\r\n        sellerWarrantyDetails[sellerId][Id].productId = productId;\r\n      allSellers[sellerId].allNFTs.push(Id);\r\n      sellerWarrantyDetails[sellerId][Id].tokenId = Id;\r\n      sellerWarrantyDetails[sellerId][Id].verifyHash = keccak256(abi.encode(customer,productId));\r\n      sellerWarrantyDetails[sellerId][Id].imageURI = imageURI;\r\n      sellerWarrantyDetails[sellerId][Id].buyers.push(customer);\r\n      sellerWarrantyDetails[sellerId][Id].status =  NFTStatus.Pending;\r\n      sellerWarrantyDetails[sellerId][Id].buyersDate.push(newNFT.creationTime);\r\n      allSellers[sellerId].itemCounter++;\r\n      buyersCollection[customer].push(Id);\r\n      buyersCount[customer]++;\r\n\r\n      tokenURIList[sellerId][Id]=tokenURI;\r\n        \r\n    }\r\n    function resell(address to,uint256 tokenId,uint256 sellerId)public{\r\n       require( ownerOf(tokenId)==msg.sender,\"Not Owner\");\r\n      sellerWarrantyDetails[sellerId][tokenId].verifyHash = keccak256(abi.encode(to, sellerWarrantyDetails[sellerId][tokenId].productId));\r\n      sellerWarrantyDetails[sellerId][tokenId].buyers.push(to);\r\n      sellerWarrantyDetails[sellerId][tokenId].buyersDate.push(block.timestamp);\r\n\r\n            _transfer(msg.sender,to,tokenId);\r\n    }\r\n\r\n       function burn(uint256 tokenId)external{\r\n        uint256 sellerId = tokenId/1000000;\r\n        require(block.timestamp>=sellerWarrantyDetails[sellerId][tokenId].expiry);\r\n        _burn(tokenId);\r\n        sellerWarrantyDetails[sellerId][tokenId].status =  NFTStatus.Expired;\r\n\r\n    }\r\n\r\n\r\n    //READ Functions\r\n\r\n    \r\n \r\n    function getSellerNFTs(uint256 sellerId) external view returns(uint256[]memory){\r\n        return allSellers[sellerId].allNFTs;\r\n    }\r\n\r\n    function getSellers() external view returns(uint256[]memory){\r\n        return totalSellers;\r\n    }\r\n    function getExpiry (uint256 sellerId,uint256 tokenId)external view returns (uint256 expiry){\r\n        return sellerWarrantyDetails[sellerId][tokenId].expiry;\r\n    }\r\n      function getCreation (uint256 sellerId,uint256 tokenId)external view returns (uint256 creation){\r\n        return sellerWarrantyDetails[sellerId][tokenId].creationTime;\r\n    }\r\n    function getSellerWarrantyDetails(uint256 sellerId,uint256 tokenId)public view returns(warrantyDetails memory){\r\n        return sellerWarrantyDetails[sellerId][tokenId] ;\r\n\r\n    }\r\n     function getBuyersCollection(address add,uint256 index)public view returns(uint256){\r\n        return buyersCollection[add][index];\r\n     }\r\n\r\n\r\n\r\n}\r\n ",
  "sourcePath": "D:\\OpenSource\\BlockChain\\Projects\\nft-warranty-market\\contracts\\NFTWarranty.sol",
  "compiler": {
    "name": "solc",
    "version": "0.8.15+commit.e14f2714.Emscripten.clang"
  },
  "schemaVersion": "3.4.8",
  "updatedAt": "2022-07-30T22:26:11.650Z",
  "networkType": "ethereum",
  "devdoc": {
    "kind": "dev",
    "methods": {
      "approve(address,uint256)": {
        "details": "See {IERC721-approve}."
      },
      "balanceOf(address)": {
        "details": "See {IERC721-balanceOf}."
      },
      "getApproved(uint256)": {
        "details": "See {IERC721-getApproved}."
      },
      "isApprovedForAll(address,address)": {
        "details": "See {IERC721-isApprovedForAll}."
      },
      "name()": {
        "details": "See {IERC721Metadata-name}."
      },
      "ownerOf(uint256)": {
        "details": "See {IERC721-ownerOf}."
      },
      "safeTransferFrom(address,address,uint256)": {
        "details": "See {IERC721-safeTransferFrom}."
      },
      "safeTransferFrom(address,address,uint256,bytes)": {
        "details": "See {IERC721-safeTransferFrom}."
      },
      "setApprovalForAll(address,bool)": {
        "details": "See {IERC721-setApprovalForAll}."
      },
      "supportsInterface(bytes4)": {
        "details": "See {IERC165-supportsInterface}."
      },
      "symbol()": {
        "details": "See {IERC721Metadata-symbol}."
      },
      "tokenURI(uint256)": {
        "details": "See {IERC721Metadata-tokenURI}."
      },
      "transferFrom(address,address,uint256)": {
        "details": "See {IERC721-transferFrom}."
      }
    },
    "version": 1
  },
  "userdoc": {
    "kind": "user",
    "methods": {},
    "version": 1
  }
}